{
	"contracts/Car.sol": {
		"Car": {
			"abi": [
				{
					"inputs": [
						{
							"internalType": "address",
							"name": "_owner",
							"type": "address"
						},
						{
							"internalType": "string",
							"name": "_model",
							"type": "string"
						}
					],
					"stateMutability": "nonpayable",
					"type": "constructor"
				},
				{
					"inputs": [],
					"name": "carAddr",
					"outputs": [
						{
							"internalType": "address",
							"name": "",
							"type": "address"
						}
					],
					"stateMutability": "view",
					"type": "function"
				},
				{
					"inputs": [],
					"name": "model",
					"outputs": [
						{
							"internalType": "string",
							"name": "",
							"type": "string"
						}
					],
					"stateMutability": "view",
					"type": "function"
				},
				{
					"inputs": [],
					"name": "owner",
					"outputs": [
						{
							"internalType": "address",
							"name": "",
							"type": "address"
						}
					],
					"stateMutability": "view",
					"type": "function"
				}
			],
			"devdoc": {
				"kind": "dev",
				"methods": {},
				"version": 1
			},
			"evm": {
				"assembly": "    /* \"contracts/Car.sol\":58:302  contract Car{... */\n  mstore(0x40, 0x80)\n    /* \"contracts/Car.sol\":157:300  constructor (address _owner, string memory _model)... */\n  callvalue\n  dup1\n  iszero\n  tag_1\n  jumpi\n  revert(0x00, 0x00)\ntag_1:\n  pop\n  mload(0x40)\n  sub(codesize, bytecodeSize)\n  dup1\n  bytecodeSize\n  dup4\n  codecopy\n  dup2\n  dup2\n  add\n  0x40\n  mstore\n  dup2\n  add\n  swap1\n  tag_2\n  swap2\n  swap1\n  tag_3\n  jump\t// in\ntag_2:\n    /* \"contracts/Car.sol\":230:236  _owner */\n  dup2\n    /* \"contracts/Car.sol\":222:227  owner */\n  0x00\n  0x00\n    /* \"contracts/Car.sol\":222:236  owner = _owner */\n  0x0100\n  exp\n  dup2\n  sload\n  dup2\n  0xffffffffffffffffffffffffffffffffffffffff\n  mul\n  not\n  and\n  swap1\n  dup4\n  0xffffffffffffffffffffffffffffffffffffffff\n  and\n  mul\n  or\n  swap1\n  sstore\n  pop\n    /* \"contracts/Car.sol\":254:260  _model */\n  dup1\n    /* \"contracts/Car.sol\":246:251  model */\n  0x01\n    /* \"contracts/Car.sol\":246:260  model = _model */\n  swap1\n  dup2\n  tag_6\n  swap2\n  swap1\n  tag_7\n  jump\t// in\ntag_6:\n  pop\n    /* \"contracts/Car.sol\":288:292  this */\n  address\n    /* \"contracts/Car.sol\":270:277  carAddr */\n  0x02\n  0x00\n    /* \"contracts/Car.sol\":270:293  carAddr = address(this) */\n  0x0100\n  exp\n  dup2\n  sload\n  dup2\n  0xffffffffffffffffffffffffffffffffffffffff\n  mul\n  not\n  and\n  swap1\n  dup4\n  0xffffffffffffffffffffffffffffffffffffffff\n  and\n  mul\n  or\n  swap1\n  sstore\n  pop\n    /* \"contracts/Car.sol\":157:300  constructor (address _owner, string memory _model)... */\n  pop\n  pop\n    /* \"contracts/Car.sol\":58:302  contract Car{... */\n  jump(tag_8)\n    /* \"#utility.yul\":7:82   */\ntag_9:\n    /* \"#utility.yul\":40:46   */\n  0x00\n    /* \"#utility.yul\":73:75   */\n  0x40\n    /* \"#utility.yul\":67:76   */\n  mload\n    /* \"#utility.yul\":57:76   */\n  swap1\n  pop\n    /* \"#utility.yul\":7:82   */\n  swap1\n  jump\t// out\n    /* \"#utility.yul\":88:205   */\ntag_10:\n    /* \"#utility.yul\":197:198   */\n  0x00\n    /* \"#utility.yul\":194:195   */\n  0x00\n    /* \"#utility.yul\":187:199   */\n  revert\n    /* \"#utility.yul\":211:328   */\ntag_11:\n    /* \"#utility.yul\":320:321   */\n  0x00\n    /* \"#utility.yul\":317:318   */\n  0x00\n    /* \"#utility.yul\":310:322   */\n  revert\n    /* \"#utility.yul\":334:460   */\ntag_12:\n    /* \"#utility.yul\":371:378   */\n  0x00\n    /* \"#utility.yul\":411:453   */\n  0xffffffffffffffffffffffffffffffffffffffff\n    /* \"#utility.yul\":404:409   */\n  dup3\n    /* \"#utility.yul\":400:454   */\n  and\n    /* \"#utility.yul\":389:454   */\n  swap1\n  pop\n    /* \"#utility.yul\":334:460   */\n  swap2\n  swap1\n  pop\n  jump\t// out\n    /* \"#utility.yul\":466:562   */\ntag_13:\n    /* \"#utility.yul\":503:510   */\n  0x00\n    /* \"#utility.yul\":532:556   */\n  tag_51\n    /* \"#utility.yul\":550:555   */\n  dup3\n    /* \"#utility.yul\":532:556   */\n  tag_12\n  jump\t// in\ntag_51:\n    /* \"#utility.yul\":521:556   */\n  swap1\n  pop\n    /* \"#utility.yul\":466:562   */\n  swap2\n  swap1\n  pop\n  jump\t// out\n    /* \"#utility.yul\":568:690   */\ntag_14:\n    /* \"#utility.yul\":641:665   */\n  tag_53\n    /* \"#utility.yul\":659:664   */\n  dup2\n    /* \"#utility.yul\":641:665   */\n  tag_13\n  jump\t// in\ntag_53:\n    /* \"#utility.yul\":634:639   */\n  dup2\n    /* \"#utility.yul\":631:666   */\n  eq\n    /* \"#utility.yul\":621:684   */\n  tag_54\n  jumpi\n    /* \"#utility.yul\":680:681   */\n  0x00\n    /* \"#utility.yul\":677:678   */\n  0x00\n    /* \"#utility.yul\":670:682   */\n  revert\n    /* \"#utility.yul\":621:684   */\ntag_54:\n    /* \"#utility.yul\":568:690   */\n  pop\n  jump\t// out\n    /* \"#utility.yul\":696:839   */\ntag_15:\n    /* \"#utility.yul\":753:758   */\n  0x00\n    /* \"#utility.yul\":784:790   */\n  dup2\n    /* \"#utility.yul\":778:791   */\n  mload\n    /* \"#utility.yul\":769:791   */\n  swap1\n  pop\n    /* \"#utility.yul\":800:833   */\n  tag_56\n    /* \"#utility.yul\":827:832   */\n  dup2\n    /* \"#utility.yul\":800:833   */\n  tag_14\n  jump\t// in\ntag_56:\n    /* \"#utility.yul\":696:839   */\n  swap3\n  swap2\n  pop\n  pop\n  jump\t// out\n    /* \"#utility.yul\":845:962   */\ntag_16:\n    /* \"#utility.yul\":954:955   */\n  0x00\n    /* \"#utility.yul\":951:952   */\n  0x00\n    /* \"#utility.yul\":944:956   */\n  revert\n    /* \"#utility.yul\":968:1085   */\ntag_17:\n    /* \"#utility.yul\":1077:1078   */\n  0x00\n    /* \"#utility.yul\":1074:1075   */\n  0x00\n    /* \"#utility.yul\":1067:1079   */\n  revert\n    /* \"#utility.yul\":1091:1193   */\ntag_18:\n    /* \"#utility.yul\":1132:1138   */\n  0x00\n    /* \"#utility.yul\":1183:1185   */\n  0x1f\n    /* \"#utility.yul\":1179:1186   */\n  not\n    /* \"#utility.yul\":1174:1176   */\n  0x1f\n    /* \"#utility.yul\":1167:1172   */\n  dup4\n    /* \"#utility.yul\":1163:1177   */\n  add\n    /* \"#utility.yul\":1159:1187   */\n  and\n    /* \"#utility.yul\":1149:1187   */\n  swap1\n  pop\n    /* \"#utility.yul\":1091:1193   */\n  swap2\n  swap1\n  pop\n  jump\t// out\n    /* \"#utility.yul\":1199:1379   */\ntag_19:\n    /* \"#utility.yul\":1247:1324   */\n  0x4e487b7100000000000000000000000000000000000000000000000000000000\n    /* \"#utility.yul\":1244:1245   */\n  0x00\n    /* \"#utility.yul\":1237:1325   */\n  mstore\n    /* \"#utility.yul\":1344:1348   */\n  0x41\n    /* \"#utility.yul\":1341:1342   */\n  0x04\n    /* \"#utility.yul\":1334:1349   */\n  mstore\n    /* \"#utility.yul\":1368:1372   */\n  0x24\n    /* \"#utility.yul\":1365:1366   */\n  0x00\n    /* \"#utility.yul\":1358:1373   */\n  revert\n    /* \"#utility.yul\":1385:1666   */\ntag_20:\n    /* \"#utility.yul\":1468:1495   */\n  tag_62\n    /* \"#utility.yul\":1490:1494   */\n  dup3\n    /* \"#utility.yul\":1468:1495   */\n  tag_18\n  jump\t// in\ntag_62:\n    /* \"#utility.yul\":1460:1466   */\n  dup2\n    /* \"#utility.yul\":1456:1496   */\n  add\n    /* \"#utility.yul\":1598:1604   */\n  dup2\n    /* \"#utility.yul\":1586:1596   */\n  dup2\n    /* \"#utility.yul\":1583:1605   */\n  lt\n    /* \"#utility.yul\":1562:1580   */\n  0xffffffffffffffff\n    /* \"#utility.yul\":1550:1560   */\n  dup3\n    /* \"#utility.yul\":1547:1581   */\n  gt\n    /* \"#utility.yul\":1544:1606   */\n  or\n    /* \"#utility.yul\":1541:1629   */\n  iszero\n  tag_63\n  jumpi\n    /* \"#utility.yul\":1609:1627   */\n  tag_64\n  tag_19\n  jump\t// in\ntag_64:\n    /* \"#utility.yul\":1541:1629   */\ntag_63:\n    /* \"#utility.yul\":1649:1659   */\n  dup1\n    /* \"#utility.yul\":1645:1647   */\n  0x40\n    /* \"#utility.yul\":1638:1660   */\n  mstore\n    /* \"#utility.yul\":1428:1666   */\n  pop\n    /* \"#utility.yul\":1385:1666   */\n  pop\n  pop\n  jump\t// out\n    /* \"#utility.yul\":1672:1801   */\ntag_21:\n    /* \"#utility.yul\":1706:1712   */\n  0x00\n    /* \"#utility.yul\":1733:1753   */\n  tag_66\n  tag_9\n  jump\t// in\ntag_66:\n    /* \"#utility.yul\":1723:1753   */\n  swap1\n  pop\n    /* \"#utility.yul\":1762:1795   */\n  tag_67\n    /* \"#utility.yul\":1790:1794   */\n  dup3\n    /* \"#utility.yul\":1782:1788   */\n  dup3\n    /* \"#utility.yul\":1762:1795   */\n  tag_20\n  jump\t// in\ntag_67:\n    /* \"#utility.yul\":1672:1801   */\n  swap2\n  swap1\n  pop\n  jump\t// out\n    /* \"#utility.yul\":1807:2115   */\ntag_22:\n    /* \"#utility.yul\":1869:1873   */\n  0x00\n    /* \"#utility.yul\":1959:1977   */\n  0xffffffffffffffff\n    /* \"#utility.yul\":1951:1957   */\n  dup3\n    /* \"#utility.yul\":1948:1978   */\n  gt\n    /* \"#utility.yul\":1945:2001   */\n  iszero\n  tag_69\n  jumpi\n    /* \"#utility.yul\":1981:1999   */\n  tag_70\n  tag_19\n  jump\t// in\ntag_70:\n    /* \"#utility.yul\":1945:2001   */\ntag_69:\n    /* \"#utility.yul\":2019:2048   */\n  tag_71\n    /* \"#utility.yul\":2041:2047   */\n  dup3\n    /* \"#utility.yul\":2019:2048   */\n  tag_18\n  jump\t// in\ntag_71:\n    /* \"#utility.yul\":2011:2048   */\n  swap1\n  pop\n    /* \"#utility.yul\":2103:2107   */\n  0x20\n    /* \"#utility.yul\":2097:2101   */\n  dup2\n    /* \"#utility.yul\":2093:2108   */\n  add\n    /* \"#utility.yul\":2085:2108   */\n  swap1\n  pop\n    /* \"#utility.yul\":1807:2115   */\n  swap2\n  swap1\n  pop\n  jump\t// out\n    /* \"#utility.yul\":2121:2260   */\ntag_23:\n    /* \"#utility.yul\":2210:2216   */\n  dup3\n    /* \"#utility.yul\":2205:2208   */\n  dup2\n    /* \"#utility.yul\":2200:2203   */\n  dup4\n    /* \"#utility.yul\":2194:2217   */\n  mcopy\n    /* \"#utility.yul\":2251:2252   */\n  0x00\n    /* \"#utility.yul\":2242:2248   */\n  dup4\n    /* \"#utility.yul\":2237:2240   */\n  dup4\n    /* \"#utility.yul\":2233:2249   */\n  add\n    /* \"#utility.yul\":2226:2253   */\n  mstore\n    /* \"#utility.yul\":2121:2260   */\n  pop\n  pop\n  pop\n  jump\t// out\n    /* \"#utility.yul\":2266:2700   */\ntag_24:\n    /* \"#utility.yul\":2355:2360   */\n  0x00\n    /* \"#utility.yul\":2380:2446   */\n  tag_74\n    /* \"#utility.yul\":2396:2445   */\n  tag_75\n    /* \"#utility.yul\":2438:2444   */\n  dup5\n    /* \"#utility.yul\":2396:2445   */\n  tag_22\n  jump\t// in\ntag_75:\n    /* \"#utility.yul\":2380:2446   */\n  tag_21\n  jump\t// in\ntag_74:\n    /* \"#utility.yul\":2371:2446   */\n  swap1\n  pop\n    /* \"#utility.yul\":2469:2475   */\n  dup3\n    /* \"#utility.yul\":2462:2467   */\n  dup2\n    /* \"#utility.yul\":2455:2476   */\n  mstore\n    /* \"#utility.yul\":2507:2511   */\n  0x20\n    /* \"#utility.yul\":2500:2505   */\n  dup2\n    /* \"#utility.yul\":2496:2512   */\n  add\n    /* \"#utility.yul\":2545:2548   */\n  dup5\n    /* \"#utility.yul\":2536:2542   */\n  dup5\n    /* \"#utility.yul\":2531:2534   */\n  dup5\n    /* \"#utility.yul\":2527:2543   */\n  add\n    /* \"#utility.yul\":2524:2549   */\n  gt\n    /* \"#utility.yul\":2521:2633   */\n  iszero\n  tag_76\n  jumpi\n    /* \"#utility.yul\":2552:2631   */\n  tag_77\n  tag_17\n  jump\t// in\ntag_77:\n    /* \"#utility.yul\":2521:2633   */\ntag_76:\n    /* \"#utility.yul\":2642:2694   */\n  tag_78\n    /* \"#utility.yul\":2687:2693   */\n  dup5\n    /* \"#utility.yul\":2682:2685   */\n  dup3\n    /* \"#utility.yul\":2677:2680   */\n  dup6\n    /* \"#utility.yul\":2642:2694   */\n  tag_23\n  jump\t// in\ntag_78:\n    /* \"#utility.yul\":2361:2700   */\n  pop\n    /* \"#utility.yul\":2266:2700   */\n  swap4\n  swap3\n  pop\n  pop\n  pop\n  jump\t// out\n    /* \"#utility.yul\":2720:3075   */\ntag_25:\n    /* \"#utility.yul\":2787:2792   */\n  0x00\n    /* \"#utility.yul\":2836:2839   */\n  dup3\n    /* \"#utility.yul\":2829:2833   */\n  0x1f\n    /* \"#utility.yul\":2821:2827   */\n  dup4\n    /* \"#utility.yul\":2817:2834   */\n  add\n    /* \"#utility.yul\":2813:2840   */\n  slt\n    /* \"#utility.yul\":2803:2925   */\n  tag_80\n  jumpi\n    /* \"#utility.yul\":2844:2923   */\n  tag_81\n  tag_16\n  jump\t// in\ntag_81:\n    /* \"#utility.yul\":2803:2925   */\ntag_80:\n    /* \"#utility.yul\":2954:2960   */\n  dup2\n    /* \"#utility.yul\":2948:2961   */\n  mload\n    /* \"#utility.yul\":2979:3069   */\n  tag_82\n    /* \"#utility.yul\":3065:3068   */\n  dup5\n    /* \"#utility.yul\":3057:3063   */\n  dup3\n    /* \"#utility.yul\":3050:3054   */\n  0x20\n    /* \"#utility.yul\":3042:3048   */\n  dup7\n    /* \"#utility.yul\":3038:3055   */\n  add\n    /* \"#utility.yul\":2979:3069   */\n  tag_24\n  jump\t// in\ntag_82:\n    /* \"#utility.yul\":2970:3069   */\n  swap2\n  pop\n    /* \"#utility.yul\":2793:3075   */\n  pop\n    /* \"#utility.yul\":2720:3075   */\n  swap3\n  swap2\n  pop\n  pop\n  jump\t// out\n    /* \"#utility.yul\":3081:3761   */\ntag_3:\n    /* \"#utility.yul\":3170:3176   */\n  0x00\n    /* \"#utility.yul\":3178:3184   */\n  0x00\n    /* \"#utility.yul\":3227:3229   */\n  0x40\n    /* \"#utility.yul\":3215:3224   */\n  dup4\n    /* \"#utility.yul\":3206:3213   */\n  dup6\n    /* \"#utility.yul\":3202:3225   */\n  sub\n    /* \"#utility.yul\":3198:3230   */\n  slt\n    /* \"#utility.yul\":3195:3314   */\n  iszero\n  tag_84\n  jumpi\n    /* \"#utility.yul\":3233:3312   */\n  tag_85\n  tag_10\n  jump\t// in\ntag_85:\n    /* \"#utility.yul\":3195:3314   */\ntag_84:\n    /* \"#utility.yul\":3353:3354   */\n  0x00\n    /* \"#utility.yul\":3378:3442   */\n  tag_86\n    /* \"#utility.yul\":3434:3441   */\n  dup6\n    /* \"#utility.yul\":3425:3431   */\n  dup3\n    /* \"#utility.yul\":3414:3423   */\n  dup7\n    /* \"#utility.yul\":3410:3432   */\n  add\n    /* \"#utility.yul\":3378:3442   */\n  tag_15\n  jump\t// in\ntag_86:\n    /* \"#utility.yul\":3368:3442   */\n  swap3\n  pop\n    /* \"#utility.yul\":3324:3452   */\n  pop\n    /* \"#utility.yul\":3512:3514   */\n  0x20\n    /* \"#utility.yul\":3501:3510   */\n  dup4\n    /* \"#utility.yul\":3497:3515   */\n  add\n    /* \"#utility.yul\":3491:3516   */\n  mload\n    /* \"#utility.yul\":3543:3561   */\n  0xffffffffffffffff\n    /* \"#utility.yul\":3535:3541   */\n  dup2\n    /* \"#utility.yul\":3532:3562   */\n  gt\n    /* \"#utility.yul\":3529:3646   */\n  iszero\n  tag_87\n  jumpi\n    /* \"#utility.yul\":3565:3644   */\n  tag_88\n  tag_11\n  jump\t// in\ntag_88:\n    /* \"#utility.yul\":3529:3646   */\ntag_87:\n    /* \"#utility.yul\":3670:3744   */\n  tag_89\n    /* \"#utility.yul\":3736:3743   */\n  dup6\n    /* \"#utility.yul\":3727:3733   */\n  dup3\n    /* \"#utility.yul\":3716:3725   */\n  dup7\n    /* \"#utility.yul\":3712:3734   */\n  add\n    /* \"#utility.yul\":3670:3744   */\n  tag_25\n  jump\t// in\ntag_89:\n    /* \"#utility.yul\":3660:3744   */\n  swap2\n  pop\n    /* \"#utility.yul\":3462:3754   */\n  pop\n    /* \"#utility.yul\":3081:3761   */\n  swap3\n  pop\n  swap3\n  swap1\n  pop\n  jump\t// out\n    /* \"#utility.yul\":3767:3866   */\ntag_26:\n    /* \"#utility.yul\":3819:3825   */\n  0x00\n    /* \"#utility.yul\":3853:3858   */\n  dup2\n    /* \"#utility.yul\":3847:3859   */\n  mload\n    /* \"#utility.yul\":3837:3859   */\n  swap1\n  pop\n    /* \"#utility.yul\":3767:3866   */\n  swap2\n  swap1\n  pop\n  jump\t// out\n    /* \"#utility.yul\":3872:4052   */\ntag_27:\n    /* \"#utility.yul\":3920:3997   */\n  0x4e487b7100000000000000000000000000000000000000000000000000000000\n    /* \"#utility.yul\":3917:3918   */\n  0x00\n    /* \"#utility.yul\":3910:3998   */\n  mstore\n    /* \"#utility.yul\":4017:4021   */\n  0x22\n    /* \"#utility.yul\":4014:4015   */\n  0x04\n    /* \"#utility.yul\":4007:4022   */\n  mstore\n    /* \"#utility.yul\":4041:4045   */\n  0x24\n    /* \"#utility.yul\":4038:4039   */\n  0x00\n    /* \"#utility.yul\":4031:4046   */\n  revert\n    /* \"#utility.yul\":4058:4378   */\ntag_28:\n    /* \"#utility.yul\":4102:4108   */\n  0x00\n    /* \"#utility.yul\":4139:4140   */\n  0x02\n    /* \"#utility.yul\":4133:4137   */\n  dup3\n    /* \"#utility.yul\":4129:4141   */\n  div\n    /* \"#utility.yul\":4119:4141   */\n  swap1\n  pop\n    /* \"#utility.yul\":4186:4187   */\n  0x01\n    /* \"#utility.yul\":4180:4184   */\n  dup3\n    /* \"#utility.yul\":4176:4188   */\n  and\n    /* \"#utility.yul\":4207:4225   */\n  dup1\n    /* \"#utility.yul\":4197:4278   */\n  tag_93\n  jumpi\n    /* \"#utility.yul\":4263:4267   */\n  0x7f\n    /* \"#utility.yul\":4255:4261   */\n  dup3\n    /* \"#utility.yul\":4251:4268   */\n  and\n    /* \"#utility.yul\":4241:4268   */\n  swap2\n  pop\n    /* \"#utility.yul\":4197:4278   */\ntag_93:\n    /* \"#utility.yul\":4325:4327   */\n  0x20\n    /* \"#utility.yul\":4317:4323   */\n  dup3\n    /* \"#utility.yul\":4314:4328   */\n  lt\n    /* \"#utility.yul\":4294:4312   */\n  dup2\n    /* \"#utility.yul\":4291:4329   */\n  sub\n    /* \"#utility.yul\":4288:4372   */\n  tag_94\n  jumpi\n    /* \"#utility.yul\":4344:4362   */\n  tag_95\n  tag_27\n  jump\t// in\ntag_95:\n    /* \"#utility.yul\":4288:4372   */\ntag_94:\n    /* \"#utility.yul\":4109:4378   */\n  pop\n    /* \"#utility.yul\":4058:4378   */\n  swap2\n  swap1\n  pop\n  jump\t// out\n    /* \"#utility.yul\":4384:4525   */\ntag_29:\n    /* \"#utility.yul\":4433:4437   */\n  0x00\n    /* \"#utility.yul\":4456:4459   */\n  dup2\n    /* \"#utility.yul\":4448:4459   */\n  swap1\n  pop\n    /* \"#utility.yul\":4479:4482   */\n  dup2\n    /* \"#utility.yul\":4476:4477   */\n  0x00\n    /* \"#utility.yul\":4469:4483   */\n  mstore\n    /* \"#utility.yul\":4513:4517   */\n  0x20\n    /* \"#utility.yul\":4510:4511   */\n  0x00\n    /* \"#utility.yul\":4500:4518   */\n  keccak256\n    /* \"#utility.yul\":4492:4518   */\n  swap1\n  pop\n    /* \"#utility.yul\":4384:4525   */\n  swap2\n  swap1\n  pop\n  jump\t// out\n    /* \"#utility.yul\":4531:4624   */\ntag_30:\n    /* \"#utility.yul\":4568:4574   */\n  0x00\n    /* \"#utility.yul\":4615:4617   */\n  0x20\n    /* \"#utility.yul\":4610:4612   */\n  0x1f\n    /* \"#utility.yul\":4603:4608   */\n  dup4\n    /* \"#utility.yul\":4599:4613   */\n  add\n    /* \"#utility.yul\":4595:4618   */\n  div\n    /* \"#utility.yul\":4585:4618   */\n  swap1\n  pop\n    /* \"#utility.yul\":4531:4624   */\n  swap2\n  swap1\n  pop\n  jump\t// out\n    /* \"#utility.yul\":4630:4737   */\ntag_31:\n    /* \"#utility.yul\":4674:4682   */\n  0x00\n    /* \"#utility.yul\":4724:4729   */\n  dup3\n    /* \"#utility.yul\":4718:4722   */\n  dup3\n    /* \"#utility.yul\":4714:4730   */\n  shl\n    /* \"#utility.yul\":4693:4730   */\n  swap1\n  pop\n    /* \"#utility.yul\":4630:4737   */\n  swap3\n  swap2\n  pop\n  pop\n  jump\t// out\n    /* \"#utility.yul\":4743:5136   */\ntag_32:\n    /* \"#utility.yul\":4812:4818   */\n  0x00\n    /* \"#utility.yul\":4862:4863   */\n  0x08\n    /* \"#utility.yul\":4850:4860   */\n  dup4\n    /* \"#utility.yul\":4846:4864   */\n  mul\n    /* \"#utility.yul\":4885:4982   */\n  tag_100\n    /* \"#utility.yul\":4915:4981   */\n  0xffffffffffffffffffffffffffffffffffffffffffffffffffffffffffffffff\n    /* \"#utility.yul\":4904:4913   */\n  dup3\n    /* \"#utility.yul\":4885:4982   */\n  tag_31\n  jump\t// in\ntag_100:\n    /* \"#utility.yul\":5003:5042   */\n  tag_101\n    /* \"#utility.yul\":5033:5041   */\n  dup7\n    /* \"#utility.yul\":5022:5031   */\n  dup4\n    /* \"#utility.yul\":5003:5042   */\n  tag_31\n  jump\t// in\ntag_101:\n    /* \"#utility.yul\":4991:5042   */\n  swap6\n  pop\n    /* \"#utility.yul\":5075:5079   */\n  dup1\n    /* \"#utility.yul\":5071:5080   */\n  not\n    /* \"#utility.yul\":5064:5069   */\n  dup5\n    /* \"#utility.yul\":5060:5081   */\n  and\n    /* \"#utility.yul\":5051:5081   */\n  swap4\n  pop\n    /* \"#utility.yul\":5124:5128   */\n  dup1\n    /* \"#utility.yul\":5114:5122   */\n  dup7\n    /* \"#utility.yul\":5110:5129   */\n  and\n    /* \"#utility.yul\":5103:5108   */\n  dup5\n    /* \"#utility.yul\":5100:5130   */\n  or\n    /* \"#utility.yul\":5090:5130   */\n  swap3\n  pop\n    /* \"#utility.yul\":4819:5136   */\n  pop\n  pop\n    /* \"#utility.yul\":4743:5136   */\n  swap4\n  swap3\n  pop\n  pop\n  pop\n  jump\t// out\n    /* \"#utility.yul\":5142:5219   */\ntag_33:\n    /* \"#utility.yul\":5179:5186   */\n  0x00\n    /* \"#utility.yul\":5208:5213   */\n  dup2\n    /* \"#utility.yul\":5197:5213   */\n  swap1\n  pop\n    /* \"#utility.yul\":5142:5219   */\n  swap2\n  swap1\n  pop\n  jump\t// out\n    /* \"#utility.yul\":5225:5285   */\ntag_34:\n    /* \"#utility.yul\":5253:5256   */\n  0x00\n    /* \"#utility.yul\":5274:5279   */\n  dup2\n    /* \"#utility.yul\":5267:5279   */\n  swap1\n  pop\n    /* \"#utility.yul\":5225:5285   */\n  swap2\n  swap1\n  pop\n  jump\t// out\n    /* \"#utility.yul\":5291:5433   */\ntag_35:\n    /* \"#utility.yul\":5341:5350   */\n  0x00\n    /* \"#utility.yul\":5374:5427   */\n  tag_105\n    /* \"#utility.yul\":5392:5426   */\n  tag_106\n    /* \"#utility.yul\":5401:5425   */\n  tag_107\n    /* \"#utility.yul\":5419:5424   */\n  dup5\n    /* \"#utility.yul\":5401:5425   */\n  tag_33\n  jump\t// in\ntag_107:\n    /* \"#utility.yul\":5392:5426   */\n  tag_34\n  jump\t// in\ntag_106:\n    /* \"#utility.yul\":5374:5427   */\n  tag_33\n  jump\t// in\ntag_105:\n    /* \"#utility.yul\":5361:5427   */\n  swap1\n  pop\n    /* \"#utility.yul\":5291:5433   */\n  swap2\n  swap1\n  pop\n  jump\t// out\n    /* \"#utility.yul\":5439:5514   */\ntag_36:\n    /* \"#utility.yul\":5482:5485   */\n  0x00\n    /* \"#utility.yul\":5503:5508   */\n  dup2\n    /* \"#utility.yul\":5496:5508   */\n  swap1\n  pop\n    /* \"#utility.yul\":5439:5514   */\n  swap2\n  swap1\n  pop\n  jump\t// out\n    /* \"#utility.yul\":5520:5789   */\ntag_37:\n    /* \"#utility.yul\":5630:5669   */\n  tag_110\n    /* \"#utility.yul\":5661:5668   */\n  dup4\n    /* \"#utility.yul\":5630:5669   */\n  tag_35\n  jump\t// in\ntag_110:\n    /* \"#utility.yul\":5691:5782   */\n  tag_111\n    /* \"#utility.yul\":5740:5781   */\n  tag_112\n    /* \"#utility.yul\":5764:5780   */\n  dup3\n    /* \"#utility.yul\":5740:5781   */\n  tag_36\n  jump\t// in\ntag_112:\n    /* \"#utility.yul\":5732:5738   */\n  dup5\n    /* \"#utility.yul\":5725:5729   */\n  dup5\n    /* \"#utility.yul\":5719:5730   */\n  sload\n    /* \"#utility.yul\":5691:5782   */\n  tag_32\n  jump\t// in\ntag_111:\n    /* \"#utility.yul\":5685:5689   */\n  dup3\n    /* \"#utility.yul\":5678:5783   */\n  sstore\n    /* \"#utility.yul\":5596:5789   */\n  pop\n    /* \"#utility.yul\":5520:5789   */\n  pop\n  pop\n  pop\n  jump\t// out\n    /* \"#utility.yul\":5795:5868   */\ntag_38:\n    /* \"#utility.yul\":5840:5843   */\n  0x00\n    /* \"#utility.yul\":5861:5862   */\n  0x00\n    /* \"#utility.yul\":5854:5862   */\n  swap1\n  pop\n    /* \"#utility.yul\":5795:5868   */\n  swap1\n  jump\t// out\n    /* \"#utility.yul\":5874:6063   */\ntag_39:\n    /* \"#utility.yul\":5951:5983   */\n  tag_115\n  tag_38\n  jump\t// in\ntag_115:\n    /* \"#utility.yul\":5992:6057   */\n  tag_116\n    /* \"#utility.yul\":6050:6056   */\n  dup2\n    /* \"#utility.yul\":6042:6048   */\n  dup5\n    /* \"#utility.yul\":6036:6040   */\n  dup5\n    /* \"#utility.yul\":5992:6057   */\n  tag_37\n  jump\t// in\ntag_116:\n    /* \"#utility.yul\":5927:6063   */\n  pop\n    /* \"#utility.yul\":5874:6063   */\n  pop\n  pop\n  jump\t// out\n    /* \"#utility.yul\":6069:6255   */\ntag_40:\n    /* \"#utility.yul\":6129:6249   */\ntag_118:\n    /* \"#utility.yul\":6146:6149   */\n  dup2\n    /* \"#utility.yul\":6139:6144   */\n  dup2\n    /* \"#utility.yul\":6136:6150   */\n  lt\n    /* \"#utility.yul\":6129:6249   */\n  iszero\n  tag_120\n  jumpi\n    /* \"#utility.yul\":6200:6239   */\n  tag_121\n    /* \"#utility.yul\":6237:6238   */\n  0x00\n    /* \"#utility.yul\":6230:6235   */\n  dup3\n    /* \"#utility.yul\":6200:6239   */\n  tag_39\n  jump\t// in\ntag_121:\n    /* \"#utility.yul\":6173:6174   */\n  0x01\n    /* \"#utility.yul\":6166:6171   */\n  dup2\n    /* \"#utility.yul\":6162:6175   */\n  add\n    /* \"#utility.yul\":6153:6175   */\n  swap1\n  pop\n    /* \"#utility.yul\":6129:6249   */\n  jump(tag_118)\ntag_120:\n    /* \"#utility.yul\":6069:6255   */\n  pop\n  pop\n  jump\t// out\n    /* \"#utility.yul\":6261:6804   */\ntag_41:\n    /* \"#utility.yul\":6362:6364   */\n  0x1f\n    /* \"#utility.yul\":6357:6360   */\n  dup3\n    /* \"#utility.yul\":6354:6365   */\n  gt\n    /* \"#utility.yul\":6351:6797   */\n  iszero\n  tag_123\n  jumpi\n    /* \"#utility.yul\":6396:6434   */\n  tag_124\n    /* \"#utility.yul\":6428:6433   */\n  dup2\n    /* \"#utility.yul\":6396:6434   */\n  tag_29\n  jump\t// in\ntag_124:\n    /* \"#utility.yul\":6480:6509   */\n  tag_125\n    /* \"#utility.yul\":6498:6508   */\n  dup5\n    /* \"#utility.yul\":6480:6509   */\n  tag_30\n  jump\t// in\ntag_125:\n    /* \"#utility.yul\":6470:6478   */\n  dup2\n    /* \"#utility.yul\":6466:6510   */\n  add\n    /* \"#utility.yul\":6663:6665   */\n  0x20\n    /* \"#utility.yul\":6651:6661   */\n  dup6\n    /* \"#utility.yul\":6648:6666   */\n  lt\n    /* \"#utility.yul\":6645:6694   */\n  iszero\n  tag_126\n  jumpi\n    /* \"#utility.yul\":6684:6692   */\n  dup2\n    /* \"#utility.yul\":6669:6692   */\n  swap1\n  pop\n    /* \"#utility.yul\":6645:6694   */\ntag_126:\n    /* \"#utility.yul\":6707:6787   */\n  tag_127\n    /* \"#utility.yul\":6763:6785   */\n  tag_128\n    /* \"#utility.yul\":6781:6784   */\n  dup6\n    /* \"#utility.yul\":6763:6785   */\n  tag_30\n  jump\t// in\ntag_128:\n    /* \"#utility.yul\":6753:6761   */\n  dup4\n    /* \"#utility.yul\":6749:6786   */\n  add\n    /* \"#utility.yul\":6736:6747   */\n  dup3\n    /* \"#utility.yul\":6707:6787   */\n  tag_40\n  jump\t// in\ntag_127:\n    /* \"#utility.yul\":6366:6797   */\n  pop\n  pop\n    /* \"#utility.yul\":6351:6797   */\ntag_123:\n    /* \"#utility.yul\":6261:6804   */\n  pop\n  pop\n  pop\n  jump\t// out\n    /* \"#utility.yul\":6810:6927   */\ntag_42:\n    /* \"#utility.yul\":6864:6872   */\n  0x00\n    /* \"#utility.yul\":6914:6919   */\n  dup3\n    /* \"#utility.yul\":6908:6912   */\n  dup3\n    /* \"#utility.yul\":6904:6920   */\n  shr\n    /* \"#utility.yul\":6883:6920   */\n  swap1\n  pop\n    /* \"#utility.yul\":6810:6927   */\n  swap3\n  swap2\n  pop\n  pop\n  jump\t// out\n    /* \"#utility.yul\":6933:7102   */\ntag_43:\n    /* \"#utility.yul\":6977:6983   */\n  0x00\n    /* \"#utility.yul\":7010:7061   */\n  tag_131\n    /* \"#utility.yul\":7058:7059   */\n  0x00\n    /* \"#utility.yul\":7054:7060   */\n  not\n    /* \"#utility.yul\":7046:7051   */\n  dup5\n    /* \"#utility.yul\":7043:7044   */\n  0x08\n    /* \"#utility.yul\":7039:7052   */\n  mul\n    /* \"#utility.yul\":7010:7061   */\n  tag_42\n  jump\t// in\ntag_131:\n    /* \"#utility.yul\":7006:7062   */\n  not\n    /* \"#utility.yul\":7091:7095   */\n  dup1\n    /* \"#utility.yul\":7085:7089   */\n  dup4\n    /* \"#utility.yul\":7081:7096   */\n  and\n    /* \"#utility.yul\":7071:7096   */\n  swap2\n  pop\n    /* \"#utility.yul\":6984:7102   */\n  pop\n    /* \"#utility.yul\":6933:7102   */\n  swap3\n  swap2\n  pop\n  pop\n  jump\t// out\n    /* \"#utility.yul\":7107:7402   */\ntag_44:\n    /* \"#utility.yul\":7183:7187   */\n  0x00\n    /* \"#utility.yul\":7329:7358   */\n  tag_133\n    /* \"#utility.yul\":7354:7357   */\n  dup4\n    /* \"#utility.yul\":7348:7352   */\n  dup4\n    /* \"#utility.yul\":7329:7358   */\n  tag_43\n  jump\t// in\ntag_133:\n    /* \"#utility.yul\":7321:7358   */\n  swap2\n  pop\n    /* \"#utility.yul\":7391:7394   */\n  dup3\n    /* \"#utility.yul\":7388:7389   */\n  0x02\n    /* \"#utility.yul\":7384:7395   */\n  mul\n    /* \"#utility.yul\":7378:7382   */\n  dup3\n    /* \"#utility.yul\":7375:7396   */\n  or\n    /* \"#utility.yul\":7367:7396   */\n  swap1\n  pop\n    /* \"#utility.yul\":7107:7402   */\n  swap3\n  swap2\n  pop\n  pop\n  jump\t// out\n    /* \"#utility.yul\":7407:8802   */\ntag_7:\n    /* \"#utility.yul\":7524:7561   */\n  tag_135\n    /* \"#utility.yul\":7557:7560   */\n  dup3\n    /* \"#utility.yul\":7524:7561   */\n  tag_26\n  jump\t// in\ntag_135:\n    /* \"#utility.yul\":7626:7644   */\n  0xffffffffffffffff\n    /* \"#utility.yul\":7618:7624   */\n  dup2\n    /* \"#utility.yul\":7615:7645   */\n  gt\n    /* \"#utility.yul\":7612:7668   */\n  iszero\n  tag_136\n  jumpi\n    /* \"#utility.yul\":7648:7666   */\n  tag_137\n  tag_19\n  jump\t// in\ntag_137:\n    /* \"#utility.yul\":7612:7668   */\ntag_136:\n    /* \"#utility.yul\":7692:7730   */\n  tag_138\n    /* \"#utility.yul\":7724:7728   */\n  dup3\n    /* \"#utility.yul\":7718:7729   */\n  sload\n    /* \"#utility.yul\":7692:7730   */\n  tag_28\n  jump\t// in\ntag_138:\n    /* \"#utility.yul\":7777:7844   */\n  tag_139\n    /* \"#utility.yul\":7837:7843   */\n  dup3\n    /* \"#utility.yul\":7829:7835   */\n  dup3\n    /* \"#utility.yul\":7823:7827   */\n  dup6\n    /* \"#utility.yul\":7777:7844   */\n  tag_41\n  jump\t// in\ntag_139:\n    /* \"#utility.yul\":7871:7872   */\n  0x00\n    /* \"#utility.yul\":7895:7899   */\n  0x20\n    /* \"#utility.yul\":7882:7899   */\n  swap1\n  pop\n    /* \"#utility.yul\":7927:7929   */\n  0x1f\n    /* \"#utility.yul\":7919:7925   */\n  dup4\n    /* \"#utility.yul\":7916:7930   */\n  gt\n    /* \"#utility.yul\":7944:7945   */\n  0x01\n    /* \"#utility.yul\":7939:8557   */\n  dup2\n  eq\n  tag_141\n  jumpi\n    /* \"#utility.yul\":8601:8602   */\n  0x00\n    /* \"#utility.yul\":8618:8624   */\n  dup5\n    /* \"#utility.yul\":8615:8692   */\n  iszero\n  tag_142\n  jumpi\n    /* \"#utility.yul\":8667:8676   */\n  dup3\n    /* \"#utility.yul\":8662:8665   */\n  dup8\n    /* \"#utility.yul\":8658:8677   */\n  add\n    /* \"#utility.yul\":8652:8678   */\n  mload\n    /* \"#utility.yul\":8643:8678   */\n  swap1\n  pop\n    /* \"#utility.yul\":8615:8692   */\ntag_142:\n    /* \"#utility.yul\":8718:8785   */\n  tag_143\n    /* \"#utility.yul\":8778:8784   */\n  dup6\n    /* \"#utility.yul\":8771:8776   */\n  dup3\n    /* \"#utility.yul\":8718:8785   */\n  tag_44\n  jump\t// in\ntag_143:\n    /* \"#utility.yul\":8712:8716   */\n  dup7\n    /* \"#utility.yul\":8705:8786   */\n  sstore\n    /* \"#utility.yul\":8574:8796   */\n  pop\n    /* \"#utility.yul\":7909:8796   */\n  jump(tag_140)\n    /* \"#utility.yul\":7939:8557   */\ntag_141:\n    /* \"#utility.yul\":7991:7995   */\n  0x1f\n    /* \"#utility.yul\":7987:7996   */\n  not\n    /* \"#utility.yul\":7979:7985   */\n  dup5\n    /* \"#utility.yul\":7975:7997   */\n  and\n    /* \"#utility.yul\":8025:8062   */\n  tag_144\n    /* \"#utility.yul\":8057:8061   */\n  dup7\n    /* \"#utility.yul\":8025:8062   */\n  tag_29\n  jump\t// in\ntag_144:\n    /* \"#utility.yul\":8084:8085   */\n  0x00\n    /* \"#utility.yul\":8098:8306   */\ntag_145:\n    /* \"#utility.yul\":8112:8119   */\n  dup3\n    /* \"#utility.yul\":8109:8110   */\n  dup2\n    /* \"#utility.yul\":8106:8120   */\n  lt\n    /* \"#utility.yul\":8098:8306   */\n  iszero\n  tag_147\n  jumpi\n    /* \"#utility.yul\":8191:8200   */\n  dup5\n    /* \"#utility.yul\":8186:8189   */\n  dup10\n    /* \"#utility.yul\":8182:8201   */\n  add\n    /* \"#utility.yul\":8176:8202   */\n  mload\n    /* \"#utility.yul\":8168:8174   */\n  dup3\n    /* \"#utility.yul\":8161:8203   */\n  sstore\n    /* \"#utility.yul\":8242:8243   */\n  0x01\n    /* \"#utility.yul\":8234:8240   */\n  dup3\n    /* \"#utility.yul\":8230:8244   */\n  add\n    /* \"#utility.yul\":8220:8244   */\n  swap2\n  pop\n    /* \"#utility.yul\":8289:8291   */\n  0x20\n    /* \"#utility.yul\":8278:8287   */\n  dup6\n    /* \"#utility.yul\":8274:8292   */\n  add\n    /* \"#utility.yul\":8261:8292   */\n  swap5\n  pop\n    /* \"#utility.yul\":8135:8139   */\n  0x20\n    /* \"#utility.yul\":8132:8133   */\n  dup2\n    /* \"#utility.yul\":8128:8140   */\n  add\n    /* \"#utility.yul\":8123:8140   */\n  swap1\n  pop\n    /* \"#utility.yul\":8098:8306   */\n  jump(tag_145)\ntag_147:\n    /* \"#utility.yul\":8334:8340   */\n  dup7\n    /* \"#utility.yul\":8325:8332   */\n  dup4\n    /* \"#utility.yul\":8322:8341   */\n  lt\n    /* \"#utility.yul\":8319:8498   */\n  iszero\n  tag_148\n  jumpi\n    /* \"#utility.yul\":8392:8401   */\n  dup5\n    /* \"#utility.yul\":8387:8390   */\n  dup10\n    /* \"#utility.yul\":8383:8402   */\n  add\n    /* \"#utility.yul\":8377:8403   */\n  mload\n    /* \"#utility.yul\":8435:8483   */\n  tag_149\n    /* \"#utility.yul\":8477:8481   */\n  0x1f\n    /* \"#utility.yul\":8469:8475   */\n  dup10\n    /* \"#utility.yul\":8465:8482   */\n  and\n    /* \"#utility.yul\":8454:8463   */\n  dup3\n    /* \"#utility.yul\":8435:8483   */\n  tag_43\n  jump\t// in\ntag_149:\n    /* \"#utility.yul\":8427:8433   */\n  dup4\n    /* \"#utility.yul\":8420:8484   */\n  sstore\n    /* \"#utility.yul\":8342:8498   */\n  pop\n    /* \"#utility.yul\":8319:8498   */\ntag_148:\n    /* \"#utility.yul\":8544:8545   */\n  0x01\n    /* \"#utility.yul\":8540:8541   */\n  0x02\n    /* \"#utility.yul\":8532:8538   */\n  dup9\n    /* \"#utility.yul\":8528:8542   */\n  mul\n    /* \"#utility.yul\":8524:8546   */\n  add\n    /* \"#utility.yul\":8518:8522   */\n  dup9\n    /* \"#utility.yul\":8511:8547   */\n  sstore\n    /* \"#utility.yul\":7946:8557   */\n  pop\n  pop\n  pop\n    /* \"#utility.yul\":7909:8796   */\ntag_140:\n  pop\n    /* \"#utility.yul\":7499:8802   */\n  pop\n  pop\n  pop\n    /* \"#utility.yul\":7407:8802   */\n  pop\n  pop\n  jump\t// out\n    /* \"contracts/Car.sol\":58:302  contract Car{... */\ntag_8:\n  dataSize(sub_0)\n  dup1\n  dataOffset(sub_0)\n  0x00\n  codecopy\n  0x00\n  return\nstop\n\nsub_0: assembly {\n        /* \"contracts/Car.sol\":58:302  contract Car{... */\n      mstore(0x40, 0x80)\n      callvalue\n      dup1\n      iszero\n      tag_1\n      jumpi\n      revert(0x00, 0x00)\n    tag_1:\n      pop\n      jumpi(tag_2, lt(calldatasize, 0x04))\n      shr(0xe0, calldataload(0x00))\n      dup1\n      0x0ad9d052\n      eq\n      tag_3\n      jumpi\n      dup1\n      0x514fa676\n      eq\n      tag_4\n      jumpi\n      dup1\n      0x8da5cb5b\n      eq\n      tag_5\n      jumpi\n    tag_2:\n      revert(0x00, 0x00)\n        /* \"contracts/Car.sol\":103:122  string public model */\n    tag_3:\n      tag_6\n      tag_7\n      jump\t// in\n    tag_6:\n      mload(0x40)\n      tag_8\n      swap2\n      swap1\n      tag_9\n      jump\t// in\n    tag_8:\n      mload(0x40)\n      dup1\n      swap2\n      sub\n      swap1\n      return\n        /* \"contracts/Car.sol\":128:150  address public carAddr */\n    tag_4:\n      tag_10\n      tag_11\n      jump\t// in\n    tag_10:\n      mload(0x40)\n      tag_12\n      swap2\n      swap1\n      tag_13\n      jump\t// in\n    tag_12:\n      mload(0x40)\n      dup1\n      swap2\n      sub\n      swap1\n      return\n        /* \"contracts/Car.sol\":76:97  address public  owner */\n    tag_5:\n      tag_14\n      tag_15\n      jump\t// in\n    tag_14:\n      mload(0x40)\n      tag_16\n      swap2\n      swap1\n      tag_13\n      jump\t// in\n    tag_16:\n      mload(0x40)\n      dup1\n      swap2\n      sub\n      swap1\n      return\n        /* \"contracts/Car.sol\":103:122  string public model */\n    tag_7:\n      0x01\n      dup1\n      sload\n      tag_17\n      swap1\n      tag_18\n      jump\t// in\n    tag_17:\n      dup1\n      0x1f\n      add\n      0x20\n      dup1\n      swap2\n      div\n      mul\n      0x20\n      add\n      mload(0x40)\n      swap1\n      dup2\n      add\n      0x40\n      mstore\n      dup1\n      swap3\n      swap2\n      swap1\n      dup2\n      dup2\n      mstore\n      0x20\n      add\n      dup3\n      dup1\n      sload\n      tag_19\n      swap1\n      tag_18\n      jump\t// in\n    tag_19:\n      dup1\n      iszero\n      tag_20\n      jumpi\n      dup1\n      0x1f\n      lt\n      tag_21\n      jumpi\n      0x0100\n      dup1\n      dup4\n      sload\n      div\n      mul\n      dup4\n      mstore\n      swap2\n      0x20\n      add\n      swap2\n      jump(tag_20)\n    tag_21:\n      dup3\n      add\n      swap2\n      swap1\n      0x00\n      mstore\n      keccak256(0x00, 0x20)\n      swap1\n    tag_22:\n      dup2\n      sload\n      dup2\n      mstore\n      swap1\n      0x01\n      add\n      swap1\n      0x20\n      add\n      dup1\n      dup4\n      gt\n      tag_22\n      jumpi\n      dup3\n      swap1\n      sub\n      0x1f\n      and\n      dup3\n      add\n      swap2\n    tag_20:\n      pop\n      pop\n      pop\n      pop\n      pop\n      dup2\n      jump\t// out\n        /* \"contracts/Car.sol\":128:150  address public carAddr */\n    tag_11:\n      0x02\n      0x00\n      swap1\n      sload\n      swap1\n      0x0100\n      exp\n      swap1\n      div\n      0xffffffffffffffffffffffffffffffffffffffff\n      and\n      dup2\n      jump\t// out\n        /* \"contracts/Car.sol\":76:97  address public  owner */\n    tag_15:\n      0x00\n      0x00\n      swap1\n      sload\n      swap1\n      0x0100\n      exp\n      swap1\n      div\n      0xffffffffffffffffffffffffffffffffffffffff\n      and\n      dup2\n      jump\t// out\n        /* \"#utility.yul\":7:106   */\n    tag_23:\n        /* \"#utility.yul\":59:65   */\n      0x00\n        /* \"#utility.yul\":93:98   */\n      dup2\n        /* \"#utility.yul\":87:99   */\n      mload\n        /* \"#utility.yul\":77:99   */\n      swap1\n      pop\n        /* \"#utility.yul\":7:106   */\n      swap2\n      swap1\n      pop\n      jump\t// out\n        /* \"#utility.yul\":112:281   */\n    tag_24:\n        /* \"#utility.yul\":196:207   */\n      0x00\n        /* \"#utility.yul\":230:236   */\n      dup3\n        /* \"#utility.yul\":225:228   */\n      dup3\n        /* \"#utility.yul\":218:237   */\n      mstore\n        /* \"#utility.yul\":270:274   */\n      0x20\n        /* \"#utility.yul\":265:268   */\n      dup3\n        /* \"#utility.yul\":261:275   */\n      add\n        /* \"#utility.yul\":246:275   */\n      swap1\n      pop\n        /* \"#utility.yul\":112:281   */\n      swap3\n      swap2\n      pop\n      pop\n      jump\t// out\n        /* \"#utility.yul\":287:426   */\n    tag_25:\n        /* \"#utility.yul\":376:382   */\n      dup3\n        /* \"#utility.yul\":371:374   */\n      dup2\n        /* \"#utility.yul\":366:369   */\n      dup4\n        /* \"#utility.yul\":360:383   */\n      mcopy\n        /* \"#utility.yul\":417:418   */\n      0x00\n        /* \"#utility.yul\":408:414   */\n      dup4\n        /* \"#utility.yul\":403:406   */\n      dup4\n        /* \"#utility.yul\":399:415   */\n      add\n        /* \"#utility.yul\":392:419   */\n      mstore\n        /* \"#utility.yul\":287:426   */\n      pop\n      pop\n      pop\n      jump\t// out\n        /* \"#utility.yul\":432:534   */\n    tag_26:\n        /* \"#utility.yul\":473:479   */\n      0x00\n        /* \"#utility.yul\":524:526   */\n      0x1f\n        /* \"#utility.yul\":520:527   */\n      not\n        /* \"#utility.yul\":515:517   */\n      0x1f\n        /* \"#utility.yul\":508:513   */\n      dup4\n        /* \"#utility.yul\":504:518   */\n      add\n        /* \"#utility.yul\":500:528   */\n      and\n        /* \"#utility.yul\":490:528   */\n      swap1\n      pop\n        /* \"#utility.yul\":432:534   */\n      swap2\n      swap1\n      pop\n      jump\t// out\n        /* \"#utility.yul\":540:917   */\n    tag_27:\n        /* \"#utility.yul\":628:631   */\n      0x00\n        /* \"#utility.yul\":656:695   */\n      tag_38\n        /* \"#utility.yul\":689:694   */\n      dup3\n        /* \"#utility.yul\":656:695   */\n      tag_23\n      jump\t// in\n    tag_38:\n        /* \"#utility.yul\":711:782   */\n      tag_39\n        /* \"#utility.yul\":775:781   */\n      dup2\n        /* \"#utility.yul\":770:773   */\n      dup6\n        /* \"#utility.yul\":711:782   */\n      tag_24\n      jump\t// in\n    tag_39:\n        /* \"#utility.yul\":704:782   */\n      swap4\n      pop\n        /* \"#utility.yul\":791:856   */\n      tag_40\n        /* \"#utility.yul\":849:855   */\n      dup2\n        /* \"#utility.yul\":844:847   */\n      dup6\n        /* \"#utility.yul\":837:841   */\n      0x20\n        /* \"#utility.yul\":830:835   */\n      dup7\n        /* \"#utility.yul\":826:842   */\n      add\n        /* \"#utility.yul\":791:856   */\n      tag_25\n      jump\t// in\n    tag_40:\n        /* \"#utility.yul\":881:910   */\n      tag_41\n        /* \"#utility.yul\":903:909   */\n      dup2\n        /* \"#utility.yul\":881:910   */\n      tag_26\n      jump\t// in\n    tag_41:\n        /* \"#utility.yul\":876:879   */\n      dup5\n        /* \"#utility.yul\":872:911   */\n      add\n        /* \"#utility.yul\":865:911   */\n      swap2\n      pop\n        /* \"#utility.yul\":632:917   */\n      pop\n        /* \"#utility.yul\":540:917   */\n      swap3\n      swap2\n      pop\n      pop\n      jump\t// out\n        /* \"#utility.yul\":923:1236   */\n    tag_9:\n        /* \"#utility.yul\":1036:1040   */\n      0x00\n        /* \"#utility.yul\":1074:1076   */\n      0x20\n        /* \"#utility.yul\":1063:1072   */\n      dup3\n        /* \"#utility.yul\":1059:1077   */\n      add\n        /* \"#utility.yul\":1051:1077   */\n      swap1\n      pop\n        /* \"#utility.yul\":1123:1132   */\n      dup2\n        /* \"#utility.yul\":1117:1121   */\n      dup2\n        /* \"#utility.yul\":1113:1133   */\n      sub\n        /* \"#utility.yul\":1109:1110   */\n      0x00\n        /* \"#utility.yul\":1098:1107   */\n      dup4\n        /* \"#utility.yul\":1094:1111   */\n      add\n        /* \"#utility.yul\":1087:1134   */\n      mstore\n        /* \"#utility.yul\":1151:1229   */\n      tag_43\n        /* \"#utility.yul\":1224:1228   */\n      dup2\n        /* \"#utility.yul\":1215:1221   */\n      dup5\n        /* \"#utility.yul\":1151:1229   */\n      tag_27\n      jump\t// in\n    tag_43:\n        /* \"#utility.yul\":1143:1229   */\n      swap1\n      pop\n        /* \"#utility.yul\":923:1236   */\n      swap3\n      swap2\n      pop\n      pop\n      jump\t// out\n        /* \"#utility.yul\":1242:1368   */\n    tag_28:\n        /* \"#utility.yul\":1279:1286   */\n      0x00\n        /* \"#utility.yul\":1319:1361   */\n      0xffffffffffffffffffffffffffffffffffffffff\n        /* \"#utility.yul\":1312:1317   */\n      dup3\n        /* \"#utility.yul\":1308:1362   */\n      and\n        /* \"#utility.yul\":1297:1362   */\n      swap1\n      pop\n        /* \"#utility.yul\":1242:1368   */\n      swap2\n      swap1\n      pop\n      jump\t// out\n        /* \"#utility.yul\":1374:1470   */\n    tag_29:\n        /* \"#utility.yul\":1411:1418   */\n      0x00\n        /* \"#utility.yul\":1440:1464   */\n      tag_46\n        /* \"#utility.yul\":1458:1463   */\n      dup3\n        /* \"#utility.yul\":1440:1464   */\n      tag_28\n      jump\t// in\n    tag_46:\n        /* \"#utility.yul\":1429:1464   */\n      swap1\n      pop\n        /* \"#utility.yul\":1374:1470   */\n      swap2\n      swap1\n      pop\n      jump\t// out\n        /* \"#utility.yul\":1476:1594   */\n    tag_30:\n        /* \"#utility.yul\":1563:1587   */\n      tag_48\n        /* \"#utility.yul\":1581:1586   */\n      dup2\n        /* \"#utility.yul\":1563:1587   */\n      tag_29\n      jump\t// in\n    tag_48:\n        /* \"#utility.yul\":1558:1561   */\n      dup3\n        /* \"#utility.yul\":1551:1588   */\n      mstore\n        /* \"#utility.yul\":1476:1594   */\n      pop\n      pop\n      jump\t// out\n        /* \"#utility.yul\":1600:1822   */\n    tag_13:\n        /* \"#utility.yul\":1693:1697   */\n      0x00\n        /* \"#utility.yul\":1731:1733   */\n      0x20\n        /* \"#utility.yul\":1720:1729   */\n      dup3\n        /* \"#utility.yul\":1716:1734   */\n      add\n        /* \"#utility.yul\":1708:1734   */\n      swap1\n      pop\n        /* \"#utility.yul\":1744:1815   */\n      tag_50\n        /* \"#utility.yul\":1812:1813   */\n      0x00\n        /* \"#utility.yul\":1801:1810   */\n      dup4\n        /* \"#utility.yul\":1797:1814   */\n      add\n        /* \"#utility.yul\":1788:1794   */\n      dup5\n        /* \"#utility.yul\":1744:1815   */\n      tag_30\n      jump\t// in\n    tag_50:\n        /* \"#utility.yul\":1600:1822   */\n      swap3\n      swap2\n      pop\n      pop\n      jump\t// out\n        /* \"#utility.yul\":1828:2008   */\n    tag_31:\n        /* \"#utility.yul\":1876:1953   */\n      0x4e487b7100000000000000000000000000000000000000000000000000000000\n        /* \"#utility.yul\":1873:1874   */\n      0x00\n        /* \"#utility.yul\":1866:1954   */\n      mstore\n        /* \"#utility.yul\":1973:1977   */\n      0x22\n        /* \"#utility.yul\":1970:1971   */\n      0x04\n        /* \"#utility.yul\":1963:1978   */\n      mstore\n        /* \"#utility.yul\":1997:2001   */\n      0x24\n        /* \"#utility.yul\":1994:1995   */\n      0x00\n        /* \"#utility.yul\":1987:2002   */\n      revert\n        /* \"#utility.yul\":2014:2334   */\n    tag_18:\n        /* \"#utility.yul\":2058:2064   */\n      0x00\n        /* \"#utility.yul\":2095:2096   */\n      0x02\n        /* \"#utility.yul\":2089:2093   */\n      dup3\n        /* \"#utility.yul\":2085:2097   */\n      div\n        /* \"#utility.yul\":2075:2097   */\n      swap1\n      pop\n        /* \"#utility.yul\":2142:2143   */\n      0x01\n        /* \"#utility.yul\":2136:2140   */\n      dup3\n        /* \"#utility.yul\":2132:2144   */\n      and\n        /* \"#utility.yul\":2163:2181   */\n      dup1\n        /* \"#utility.yul\":2153:2234   */\n      tag_53\n      jumpi\n        /* \"#utility.yul\":2219:2223   */\n      0x7f\n        /* \"#utility.yul\":2211:2217   */\n      dup3\n        /* \"#utility.yul\":2207:2224   */\n      and\n        /* \"#utility.yul\":2197:2224   */\n      swap2\n      pop\n        /* \"#utility.yul\":2153:2234   */\n    tag_53:\n        /* \"#utility.yul\":2281:2283   */\n      0x20\n        /* \"#utility.yul\":2273:2279   */\n      dup3\n        /* \"#utility.yul\":2270:2284   */\n      lt\n        /* \"#utility.yul\":2250:2268   */\n      dup2\n        /* \"#utility.yul\":2247:2285   */\n      sub\n        /* \"#utility.yul\":2244:2328   */\n      tag_54\n      jumpi\n        /* \"#utility.yul\":2300:2318   */\n      tag_55\n      tag_31\n      jump\t// in\n    tag_55:\n        /* \"#utility.yul\":2244:2328   */\n    tag_54:\n        /* \"#utility.yul\":2065:2334   */\n      pop\n        /* \"#utility.yul\":2014:2334   */\n      swap2\n      swap1\n      pop\n      jump\t// out\n\n    auxdata: 0xa2646970667358221220ff44ad0fb8b5064bf9042f85896310e3741287b08cbcfa4db66e8b782cf5a50964736f6c634300081e0033\n}\n",
				"bytecode": {
					"linkReferences": {},
					"object": "608060405234801561000f575f5ffd5b506040516108a13803806108a18339818101604052810190610031919061026e565b815f5f6101000a81548173ffffffffffffffffffffffffffffffffffffffff021916908373ffffffffffffffffffffffffffffffffffffffff160217905550806001908161007f91906104d8565b503060025f6101000a81548173ffffffffffffffffffffffffffffffffffffffff021916908373ffffffffffffffffffffffffffffffffffffffff16021790555050506105a7565b5f604051905090565b5f5ffd5b5f5ffd5b5f73ffffffffffffffffffffffffffffffffffffffff82169050919050565b5f610101826100d8565b9050919050565b610111816100f7565b811461011b575f5ffd5b50565b5f8151905061012c81610108565b92915050565b5f5ffd5b5f5ffd5b5f601f19601f8301169050919050565b7f4e487b71000000000000000000000000000000000000000000000000000000005f52604160045260245ffd5b6101808261013a565b810181811067ffffffffffffffff8211171561019f5761019e61014a565b5b80604052505050565b5f6101b16100c7565b90506101bd8282610177565b919050565b5f67ffffffffffffffff8211156101dc576101db61014a565b5b6101e58261013a565b9050602081019050919050565b8281835e5f83830152505050565b5f61021261020d846101c2565b6101a8565b90508281526020810184848401111561022e5761022d610136565b5b6102398482856101f2565b509392505050565b5f82601f83011261025557610254610132565b5b8151610265848260208601610200565b91505092915050565b5f5f60408385031215610284576102836100d0565b5b5f6102918582860161011e565b925050602083015167ffffffffffffffff8111156102b2576102b16100d4565b5b6102be85828601610241565b9150509250929050565b5f81519050919050565b7f4e487b71000000000000000000000000000000000000000000000000000000005f52602260045260245ffd5b5f600282049050600182168061031657607f821691505b602082108103610329576103286102d2565b5b50919050565b5f819050815f5260205f209050919050565b5f6020601f8301049050919050565b5f82821b905092915050565b5f6008830261038b7fffffffffffffffffffffffffffffffffffffffffffffffffffffffffffffffff82610350565b6103958683610350565b95508019841693508086168417925050509392505050565b5f819050919050565b5f819050919050565b5f6103d96103d46103cf846103ad565b6103b6565b6103ad565b9050919050565b5f819050919050565b6103f2836103bf565b6104066103fe826103e0565b84845461035c565b825550505050565b5f5f905090565b61041d61040e565b6104288184846103e9565b505050565b5b8181101561044b576104405f82610415565b60018101905061042e565b5050565b601f821115610490576104618161032f565b61046a84610341565b81016020851015610479578190505b61048d61048585610341565b83018261042d565b50505b505050565b5f82821c905092915050565b5f6104b05f1984600802610495565b1980831691505092915050565b5f6104c883836104a1565b9150826002028217905092915050565b6104e1826102c8565b67ffffffffffffffff8111156104fa576104f961014a565b5b61050482546102ff565b61050f82828561044f565b5f60209050601f831160018114610540575f841561052e578287015190505b61053885826104bd565b86555061059f565b601f19841661054e8661032f565b5f5b8281101561057557848901518255600182019150602085019450602081019050610550565b86831015610592578489015161058e601f8916826104a1565b8355505b6001600288020188555050505b505050505050565b6102ed806105b45f395ff3fe608060405234801561000f575f5ffd5b506004361061003f575f3560e01c80630ad9d05214610043578063514fa676146100615780638da5cb5b1461007f575b5f5ffd5b61004b61009d565b60405161005891906101e2565b60405180910390f35b610069610129565b6040516100769190610241565b60405180910390f35b61008761014e565b6040516100949190610241565b60405180910390f35b600180546100aa90610287565b80601f01602080910402602001604051908101604052809291908181526020018280546100d690610287565b80156101215780601f106100f857610100808354040283529160200191610121565b820191905f5260205f20905b81548152906001019060200180831161010457829003601f168201915b505050505081565b60025f9054906101000a900473ffffffffffffffffffffffffffffffffffffffff1681565b5f5f9054906101000a900473ffffffffffffffffffffffffffffffffffffffff1681565b5f81519050919050565b5f82825260208201905092915050565b8281835e5f83830152505050565b5f601f19601f8301169050919050565b5f6101b482610172565b6101be818561017c565b93506101ce81856020860161018c565b6101d78161019a565b840191505092915050565b5f6020820190508181035f8301526101fa81846101aa565b905092915050565b5f73ffffffffffffffffffffffffffffffffffffffff82169050919050565b5f61022b82610202565b9050919050565b61023b81610221565b82525050565b5f6020820190506102545f830184610232565b92915050565b7f4e487b71000000000000000000000000000000000000000000000000000000005f52602260045260245ffd5b5f600282049050600182168061029e57607f821691505b6020821081036102b1576102b061025a565b5b5091905056fea2646970667358221220ff44ad0fb8b5064bf9042f85896310e3741287b08cbcfa4db66e8b782cf5a50964736f6c634300081e0033",
					"opcodes": "PUSH1 0x80 PUSH1 0x40 MSTORE CALLVALUE DUP1 ISZERO PUSH2 0xF JUMPI PUSH0 PUSH0 REVERT JUMPDEST POP PUSH1 0x40 MLOAD PUSH2 0x8A1 CODESIZE SUB DUP1 PUSH2 0x8A1 DUP4 CODECOPY DUP2 DUP2 ADD PUSH1 0x40 MSTORE DUP2 ADD SWAP1 PUSH2 0x31 SWAP2 SWAP1 PUSH2 0x26E JUMP JUMPDEST DUP2 PUSH0 PUSH0 PUSH2 0x100 EXP DUP2 SLOAD DUP2 PUSH20 0xFFFFFFFFFFFFFFFFFFFFFFFFFFFFFFFFFFFFFFFF MUL NOT AND SWAP1 DUP4 PUSH20 0xFFFFFFFFFFFFFFFFFFFFFFFFFFFFFFFFFFFFFFFF AND MUL OR SWAP1 SSTORE POP DUP1 PUSH1 0x1 SWAP1 DUP2 PUSH2 0x7F SWAP2 SWAP1 PUSH2 0x4D8 JUMP JUMPDEST POP ADDRESS PUSH1 0x2 PUSH0 PUSH2 0x100 EXP DUP2 SLOAD DUP2 PUSH20 0xFFFFFFFFFFFFFFFFFFFFFFFFFFFFFFFFFFFFFFFF MUL NOT AND SWAP1 DUP4 PUSH20 0xFFFFFFFFFFFFFFFFFFFFFFFFFFFFFFFFFFFFFFFF AND MUL OR SWAP1 SSTORE POP POP POP PUSH2 0x5A7 JUMP JUMPDEST PUSH0 PUSH1 0x40 MLOAD SWAP1 POP SWAP1 JUMP JUMPDEST PUSH0 PUSH0 REVERT JUMPDEST PUSH0 PUSH0 REVERT JUMPDEST PUSH0 PUSH20 0xFFFFFFFFFFFFFFFFFFFFFFFFFFFFFFFFFFFFFFFF DUP3 AND SWAP1 POP SWAP2 SWAP1 POP JUMP JUMPDEST PUSH0 PUSH2 0x101 DUP3 PUSH2 0xD8 JUMP JUMPDEST SWAP1 POP SWAP2 SWAP1 POP JUMP JUMPDEST PUSH2 0x111 DUP2 PUSH2 0xF7 JUMP JUMPDEST DUP2 EQ PUSH2 0x11B JUMPI PUSH0 PUSH0 REVERT JUMPDEST POP JUMP JUMPDEST PUSH0 DUP2 MLOAD SWAP1 POP PUSH2 0x12C DUP2 PUSH2 0x108 JUMP JUMPDEST SWAP3 SWAP2 POP POP JUMP JUMPDEST PUSH0 PUSH0 REVERT JUMPDEST PUSH0 PUSH0 REVERT JUMPDEST PUSH0 PUSH1 0x1F NOT PUSH1 0x1F DUP4 ADD AND SWAP1 POP SWAP2 SWAP1 POP JUMP JUMPDEST PUSH32 0x4E487B7100000000000000000000000000000000000000000000000000000000 PUSH0 MSTORE PUSH1 0x41 PUSH1 0x4 MSTORE PUSH1 0x24 PUSH0 REVERT JUMPDEST PUSH2 0x180 DUP3 PUSH2 0x13A JUMP JUMPDEST DUP2 ADD DUP2 DUP2 LT PUSH8 0xFFFFFFFFFFFFFFFF DUP3 GT OR ISZERO PUSH2 0x19F JUMPI PUSH2 0x19E PUSH2 0x14A JUMP JUMPDEST JUMPDEST DUP1 PUSH1 0x40 MSTORE POP POP POP JUMP JUMPDEST PUSH0 PUSH2 0x1B1 PUSH2 0xC7 JUMP JUMPDEST SWAP1 POP PUSH2 0x1BD DUP3 DUP3 PUSH2 0x177 JUMP JUMPDEST SWAP2 SWAP1 POP JUMP JUMPDEST PUSH0 PUSH8 0xFFFFFFFFFFFFFFFF DUP3 GT ISZERO PUSH2 0x1DC JUMPI PUSH2 0x1DB PUSH2 0x14A JUMP JUMPDEST JUMPDEST PUSH2 0x1E5 DUP3 PUSH2 0x13A JUMP JUMPDEST SWAP1 POP PUSH1 0x20 DUP2 ADD SWAP1 POP SWAP2 SWAP1 POP JUMP JUMPDEST DUP3 DUP2 DUP4 MCOPY PUSH0 DUP4 DUP4 ADD MSTORE POP POP POP JUMP JUMPDEST PUSH0 PUSH2 0x212 PUSH2 0x20D DUP5 PUSH2 0x1C2 JUMP JUMPDEST PUSH2 0x1A8 JUMP JUMPDEST SWAP1 POP DUP3 DUP2 MSTORE PUSH1 0x20 DUP2 ADD DUP5 DUP5 DUP5 ADD GT ISZERO PUSH2 0x22E JUMPI PUSH2 0x22D PUSH2 0x136 JUMP JUMPDEST JUMPDEST PUSH2 0x239 DUP5 DUP3 DUP6 PUSH2 0x1F2 JUMP JUMPDEST POP SWAP4 SWAP3 POP POP POP JUMP JUMPDEST PUSH0 DUP3 PUSH1 0x1F DUP4 ADD SLT PUSH2 0x255 JUMPI PUSH2 0x254 PUSH2 0x132 JUMP JUMPDEST JUMPDEST DUP2 MLOAD PUSH2 0x265 DUP5 DUP3 PUSH1 0x20 DUP7 ADD PUSH2 0x200 JUMP JUMPDEST SWAP2 POP POP SWAP3 SWAP2 POP POP JUMP JUMPDEST PUSH0 PUSH0 PUSH1 0x40 DUP4 DUP6 SUB SLT ISZERO PUSH2 0x284 JUMPI PUSH2 0x283 PUSH2 0xD0 JUMP JUMPDEST JUMPDEST PUSH0 PUSH2 0x291 DUP6 DUP3 DUP7 ADD PUSH2 0x11E JUMP JUMPDEST SWAP3 POP POP PUSH1 0x20 DUP4 ADD MLOAD PUSH8 0xFFFFFFFFFFFFFFFF DUP2 GT ISZERO PUSH2 0x2B2 JUMPI PUSH2 0x2B1 PUSH2 0xD4 JUMP JUMPDEST JUMPDEST PUSH2 0x2BE DUP6 DUP3 DUP7 ADD PUSH2 0x241 JUMP JUMPDEST SWAP2 POP POP SWAP3 POP SWAP3 SWAP1 POP JUMP JUMPDEST PUSH0 DUP2 MLOAD SWAP1 POP SWAP2 SWAP1 POP JUMP JUMPDEST PUSH32 0x4E487B7100000000000000000000000000000000000000000000000000000000 PUSH0 MSTORE PUSH1 0x22 PUSH1 0x4 MSTORE PUSH1 0x24 PUSH0 REVERT JUMPDEST PUSH0 PUSH1 0x2 DUP3 DIV SWAP1 POP PUSH1 0x1 DUP3 AND DUP1 PUSH2 0x316 JUMPI PUSH1 0x7F DUP3 AND SWAP2 POP JUMPDEST PUSH1 0x20 DUP3 LT DUP2 SUB PUSH2 0x329 JUMPI PUSH2 0x328 PUSH2 0x2D2 JUMP JUMPDEST JUMPDEST POP SWAP2 SWAP1 POP JUMP JUMPDEST PUSH0 DUP2 SWAP1 POP DUP2 PUSH0 MSTORE PUSH1 0x20 PUSH0 KECCAK256 SWAP1 POP SWAP2 SWAP1 POP JUMP JUMPDEST PUSH0 PUSH1 0x20 PUSH1 0x1F DUP4 ADD DIV SWAP1 POP SWAP2 SWAP1 POP JUMP JUMPDEST PUSH0 DUP3 DUP3 SHL SWAP1 POP SWAP3 SWAP2 POP POP JUMP JUMPDEST PUSH0 PUSH1 0x8 DUP4 MUL PUSH2 0x38B PUSH32 0xFFFFFFFFFFFFFFFFFFFFFFFFFFFFFFFFFFFFFFFFFFFFFFFFFFFFFFFFFFFFFFFF DUP3 PUSH2 0x350 JUMP JUMPDEST PUSH2 0x395 DUP7 DUP4 PUSH2 0x350 JUMP JUMPDEST SWAP6 POP DUP1 NOT DUP5 AND SWAP4 POP DUP1 DUP7 AND DUP5 OR SWAP3 POP POP POP SWAP4 SWAP3 POP POP POP JUMP JUMPDEST PUSH0 DUP2 SWAP1 POP SWAP2 SWAP1 POP JUMP JUMPDEST PUSH0 DUP2 SWAP1 POP SWAP2 SWAP1 POP JUMP JUMPDEST PUSH0 PUSH2 0x3D9 PUSH2 0x3D4 PUSH2 0x3CF DUP5 PUSH2 0x3AD JUMP JUMPDEST PUSH2 0x3B6 JUMP JUMPDEST PUSH2 0x3AD JUMP JUMPDEST SWAP1 POP SWAP2 SWAP1 POP JUMP JUMPDEST PUSH0 DUP2 SWAP1 POP SWAP2 SWAP1 POP JUMP JUMPDEST PUSH2 0x3F2 DUP4 PUSH2 0x3BF JUMP JUMPDEST PUSH2 0x406 PUSH2 0x3FE DUP3 PUSH2 0x3E0 JUMP JUMPDEST DUP5 DUP5 SLOAD PUSH2 0x35C JUMP JUMPDEST DUP3 SSTORE POP POP POP POP JUMP JUMPDEST PUSH0 PUSH0 SWAP1 POP SWAP1 JUMP JUMPDEST PUSH2 0x41D PUSH2 0x40E JUMP JUMPDEST PUSH2 0x428 DUP2 DUP5 DUP5 PUSH2 0x3E9 JUMP JUMPDEST POP POP POP JUMP JUMPDEST JUMPDEST DUP2 DUP2 LT ISZERO PUSH2 0x44B JUMPI PUSH2 0x440 PUSH0 DUP3 PUSH2 0x415 JUMP JUMPDEST PUSH1 0x1 DUP2 ADD SWAP1 POP PUSH2 0x42E JUMP JUMPDEST POP POP JUMP JUMPDEST PUSH1 0x1F DUP3 GT ISZERO PUSH2 0x490 JUMPI PUSH2 0x461 DUP2 PUSH2 0x32F JUMP JUMPDEST PUSH2 0x46A DUP5 PUSH2 0x341 JUMP JUMPDEST DUP2 ADD PUSH1 0x20 DUP6 LT ISZERO PUSH2 0x479 JUMPI DUP2 SWAP1 POP JUMPDEST PUSH2 0x48D PUSH2 0x485 DUP6 PUSH2 0x341 JUMP JUMPDEST DUP4 ADD DUP3 PUSH2 0x42D JUMP JUMPDEST POP POP JUMPDEST POP POP POP JUMP JUMPDEST PUSH0 DUP3 DUP3 SHR SWAP1 POP SWAP3 SWAP2 POP POP JUMP JUMPDEST PUSH0 PUSH2 0x4B0 PUSH0 NOT DUP5 PUSH1 0x8 MUL PUSH2 0x495 JUMP JUMPDEST NOT DUP1 DUP4 AND SWAP2 POP POP SWAP3 SWAP2 POP POP JUMP JUMPDEST PUSH0 PUSH2 0x4C8 DUP4 DUP4 PUSH2 0x4A1 JUMP JUMPDEST SWAP2 POP DUP3 PUSH1 0x2 MUL DUP3 OR SWAP1 POP SWAP3 SWAP2 POP POP JUMP JUMPDEST PUSH2 0x4E1 DUP3 PUSH2 0x2C8 JUMP JUMPDEST PUSH8 0xFFFFFFFFFFFFFFFF DUP2 GT ISZERO PUSH2 0x4FA JUMPI PUSH2 0x4F9 PUSH2 0x14A JUMP JUMPDEST JUMPDEST PUSH2 0x504 DUP3 SLOAD PUSH2 0x2FF JUMP JUMPDEST PUSH2 0x50F DUP3 DUP3 DUP6 PUSH2 0x44F JUMP JUMPDEST PUSH0 PUSH1 0x20 SWAP1 POP PUSH1 0x1F DUP4 GT PUSH1 0x1 DUP2 EQ PUSH2 0x540 JUMPI PUSH0 DUP5 ISZERO PUSH2 0x52E JUMPI DUP3 DUP8 ADD MLOAD SWAP1 POP JUMPDEST PUSH2 0x538 DUP6 DUP3 PUSH2 0x4BD JUMP JUMPDEST DUP7 SSTORE POP PUSH2 0x59F JUMP JUMPDEST PUSH1 0x1F NOT DUP5 AND PUSH2 0x54E DUP7 PUSH2 0x32F JUMP JUMPDEST PUSH0 JUMPDEST DUP3 DUP2 LT ISZERO PUSH2 0x575 JUMPI DUP5 DUP10 ADD MLOAD DUP3 SSTORE PUSH1 0x1 DUP3 ADD SWAP2 POP PUSH1 0x20 DUP6 ADD SWAP5 POP PUSH1 0x20 DUP2 ADD SWAP1 POP PUSH2 0x550 JUMP JUMPDEST DUP7 DUP4 LT ISZERO PUSH2 0x592 JUMPI DUP5 DUP10 ADD MLOAD PUSH2 0x58E PUSH1 0x1F DUP10 AND DUP3 PUSH2 0x4A1 JUMP JUMPDEST DUP4 SSTORE POP JUMPDEST PUSH1 0x1 PUSH1 0x2 DUP9 MUL ADD DUP9 SSTORE POP POP POP JUMPDEST POP POP POP POP POP POP JUMP JUMPDEST PUSH2 0x2ED DUP1 PUSH2 0x5B4 PUSH0 CODECOPY PUSH0 RETURN INVALID PUSH1 0x80 PUSH1 0x40 MSTORE CALLVALUE DUP1 ISZERO PUSH2 0xF JUMPI PUSH0 PUSH0 REVERT JUMPDEST POP PUSH1 0x4 CALLDATASIZE LT PUSH2 0x3F JUMPI PUSH0 CALLDATALOAD PUSH1 0xE0 SHR DUP1 PUSH4 0xAD9D052 EQ PUSH2 0x43 JUMPI DUP1 PUSH4 0x514FA676 EQ PUSH2 0x61 JUMPI DUP1 PUSH4 0x8DA5CB5B EQ PUSH2 0x7F JUMPI JUMPDEST PUSH0 PUSH0 REVERT JUMPDEST PUSH2 0x4B PUSH2 0x9D JUMP JUMPDEST PUSH1 0x40 MLOAD PUSH2 0x58 SWAP2 SWAP1 PUSH2 0x1E2 JUMP JUMPDEST PUSH1 0x40 MLOAD DUP1 SWAP2 SUB SWAP1 RETURN JUMPDEST PUSH2 0x69 PUSH2 0x129 JUMP JUMPDEST PUSH1 0x40 MLOAD PUSH2 0x76 SWAP2 SWAP1 PUSH2 0x241 JUMP JUMPDEST PUSH1 0x40 MLOAD DUP1 SWAP2 SUB SWAP1 RETURN JUMPDEST PUSH2 0x87 PUSH2 0x14E JUMP JUMPDEST PUSH1 0x40 MLOAD PUSH2 0x94 SWAP2 SWAP1 PUSH2 0x241 JUMP JUMPDEST PUSH1 0x40 MLOAD DUP1 SWAP2 SUB SWAP1 RETURN JUMPDEST PUSH1 0x1 DUP1 SLOAD PUSH2 0xAA SWAP1 PUSH2 0x287 JUMP JUMPDEST DUP1 PUSH1 0x1F ADD PUSH1 0x20 DUP1 SWAP2 DIV MUL PUSH1 0x20 ADD PUSH1 0x40 MLOAD SWAP1 DUP2 ADD PUSH1 0x40 MSTORE DUP1 SWAP3 SWAP2 SWAP1 DUP2 DUP2 MSTORE PUSH1 0x20 ADD DUP3 DUP1 SLOAD PUSH2 0xD6 SWAP1 PUSH2 0x287 JUMP JUMPDEST DUP1 ISZERO PUSH2 0x121 JUMPI DUP1 PUSH1 0x1F LT PUSH2 0xF8 JUMPI PUSH2 0x100 DUP1 DUP4 SLOAD DIV MUL DUP4 MSTORE SWAP2 PUSH1 0x20 ADD SWAP2 PUSH2 0x121 JUMP JUMPDEST DUP3 ADD SWAP2 SWAP1 PUSH0 MSTORE PUSH1 0x20 PUSH0 KECCAK256 SWAP1 JUMPDEST DUP2 SLOAD DUP2 MSTORE SWAP1 PUSH1 0x1 ADD SWAP1 PUSH1 0x20 ADD DUP1 DUP4 GT PUSH2 0x104 JUMPI DUP3 SWAP1 SUB PUSH1 0x1F AND DUP3 ADD SWAP2 JUMPDEST POP POP POP POP POP DUP2 JUMP JUMPDEST PUSH1 0x2 PUSH0 SWAP1 SLOAD SWAP1 PUSH2 0x100 EXP SWAP1 DIV PUSH20 0xFFFFFFFFFFFFFFFFFFFFFFFFFFFFFFFFFFFFFFFF AND DUP2 JUMP JUMPDEST PUSH0 PUSH0 SWAP1 SLOAD SWAP1 PUSH2 0x100 EXP SWAP1 DIV PUSH20 0xFFFFFFFFFFFFFFFFFFFFFFFFFFFFFFFFFFFFFFFF AND DUP2 JUMP JUMPDEST PUSH0 DUP2 MLOAD SWAP1 POP SWAP2 SWAP1 POP JUMP JUMPDEST PUSH0 DUP3 DUP3 MSTORE PUSH1 0x20 DUP3 ADD SWAP1 POP SWAP3 SWAP2 POP POP JUMP JUMPDEST DUP3 DUP2 DUP4 MCOPY PUSH0 DUP4 DUP4 ADD MSTORE POP POP POP JUMP JUMPDEST PUSH0 PUSH1 0x1F NOT PUSH1 0x1F DUP4 ADD AND SWAP1 POP SWAP2 SWAP1 POP JUMP JUMPDEST PUSH0 PUSH2 0x1B4 DUP3 PUSH2 0x172 JUMP JUMPDEST PUSH2 0x1BE DUP2 DUP6 PUSH2 0x17C JUMP JUMPDEST SWAP4 POP PUSH2 0x1CE DUP2 DUP6 PUSH1 0x20 DUP7 ADD PUSH2 0x18C JUMP JUMPDEST PUSH2 0x1D7 DUP2 PUSH2 0x19A JUMP JUMPDEST DUP5 ADD SWAP2 POP POP SWAP3 SWAP2 POP POP JUMP JUMPDEST PUSH0 PUSH1 0x20 DUP3 ADD SWAP1 POP DUP2 DUP2 SUB PUSH0 DUP4 ADD MSTORE PUSH2 0x1FA DUP2 DUP5 PUSH2 0x1AA JUMP JUMPDEST SWAP1 POP SWAP3 SWAP2 POP POP JUMP JUMPDEST PUSH0 PUSH20 0xFFFFFFFFFFFFFFFFFFFFFFFFFFFFFFFFFFFFFFFF DUP3 AND SWAP1 POP SWAP2 SWAP1 POP JUMP JUMPDEST PUSH0 PUSH2 0x22B DUP3 PUSH2 0x202 JUMP JUMPDEST SWAP1 POP SWAP2 SWAP1 POP JUMP JUMPDEST PUSH2 0x23B DUP2 PUSH2 0x221 JUMP JUMPDEST DUP3 MSTORE POP POP JUMP JUMPDEST PUSH0 PUSH1 0x20 DUP3 ADD SWAP1 POP PUSH2 0x254 PUSH0 DUP4 ADD DUP5 PUSH2 0x232 JUMP JUMPDEST SWAP3 SWAP2 POP POP JUMP JUMPDEST PUSH32 0x4E487B7100000000000000000000000000000000000000000000000000000000 PUSH0 MSTORE PUSH1 0x22 PUSH1 0x4 MSTORE PUSH1 0x24 PUSH0 REVERT JUMPDEST PUSH0 PUSH1 0x2 DUP3 DIV SWAP1 POP PUSH1 0x1 DUP3 AND DUP1 PUSH2 0x29E JUMPI PUSH1 0x7F DUP3 AND SWAP2 POP JUMPDEST PUSH1 0x20 DUP3 LT DUP2 SUB PUSH2 0x2B1 JUMPI PUSH2 0x2B0 PUSH2 0x25A JUMP JUMPDEST JUMPDEST POP SWAP2 SWAP1 POP JUMP INVALID LOG2 PUSH5 0x6970667358 0x22 SLT KECCAK256 SELFDESTRUCT PREVRANDAO 0xAD 0xF 0xB8 0xB5 MOD 0x4B EXTDELEGATECALL DIV 0x2F DUP6 DUP10 PUSH4 0x10E37412 DUP8 0xB0 DUP13 0xBC STATICCALL 0x4D 0xB6 PUSH15 0x8B782CF5A50964736F6C634300081E STOP CALLER "
				},
				"gasEstimates": {
					"creation": {
						"codeDepositCost": "149800",
						"executionCost": "infinite",
						"totalCost": "infinite"
					},
					"external": {
						"carAddr()": "2508",
						"model()": "infinite",
						"owner()": "2529"
					}
				},
				"methodIdentifiers": {
					"carAddr()": "514fa676",
					"model()": "0ad9d052",
					"owner()": "8da5cb5b"
				}
			},
			"storageLayout": {
				"storage": [
					{
						"astId": 3,
						"contract": "contracts/Car.sol:Car",
						"label": "owner",
						"offset": 0,
						"slot": "0",
						"type": "t_address"
					},
					{
						"astId": 5,
						"contract": "contracts/Car.sol:Car",
						"label": "model",
						"offset": 0,
						"slot": "1",
						"type": "t_string_storage"
					},
					{
						"astId": 7,
						"contract": "contracts/Car.sol:Car",
						"label": "carAddr",
						"offset": 0,
						"slot": "2",
						"type": "t_address"
					}
				],
				"types": {
					"t_address": {
						"encoding": "inplace",
						"label": "address",
						"numberOfBytes": "20"
					},
					"t_string_storage": {
						"encoding": "bytes",
						"label": "string",
						"numberOfBytes": "32"
					}
				}
			},
			"userdoc": {
				"kind": "user",
				"methods": {},
				"version": 1
			}
		}
	}
}