{
	"contracts/VerifySignature.sol": {
		"VerifySignature": {
			"abi": [
				{
					"inputs": [
						{
							"internalType": "bytes32",
							"name": "_messageHash",
							"type": "bytes32"
						}
					],
					"name": "getEthSignedMessageHash",
					"outputs": [
						{
							"internalType": "bytes32",
							"name": "",
							"type": "bytes32"
						}
					],
					"stateMutability": "pure",
					"type": "function"
				},
				{
					"inputs": [
						{
							"internalType": "address",
							"name": "_to",
							"type": "address"
						},
						{
							"internalType": "uint256",
							"name": "_amount",
							"type": "uint256"
						},
						{
							"internalType": "string",
							"name": "_message",
							"type": "string"
						},
						{
							"internalType": "uint256",
							"name": "_nonce",
							"type": "uint256"
						}
					],
					"name": "getMessageHash",
					"outputs": [
						{
							"internalType": "bytes32",
							"name": "",
							"type": "bytes32"
						}
					],
					"stateMutability": "pure",
					"type": "function"
				}
			],
			"devdoc": {
				"kind": "dev",
				"methods": {},
				"version": 1
			},
			"evm": {
				"assembly": "    /* \"contracts/VerifySignature.sol\":58:499  contract VerifySignature{... */\n  mstore(0x40, 0x80)\n  callvalue\n  dup1\n  iszero\n  tag_1\n  jumpi\n  revert(0x00, 0x00)\ntag_1:\n  pop\n  dataSize(sub_0)\n  dup1\n  dataOffset(sub_0)\n  0x00\n  codecopy\n  0x00\n  return\nstop\n\nsub_0: assembly {\n        /* \"contracts/VerifySignature.sol\":58:499  contract VerifySignature{... */\n      mstore(0x40, 0x80)\n      callvalue\n      dup1\n      iszero\n      tag_1\n      jumpi\n      revert(0x00, 0x00)\n    tag_1:\n      pop\n      jumpi(tag_2, lt(calldatasize, 0x04))\n      shr(0xe0, calldataload(0x00))\n      dup1\n      0xa35f8a40\n      eq\n      tag_3\n      jumpi\n      dup1\n      0xfa540801\n      eq\n      tag_4\n      jumpi\n    tag_2:\n      revert(0x00, 0x00)\n        /* \"contracts/VerifySignature.sol\":89:295  function getMessageHash(address _to, uint256 _amount, string memory _message, uint256 _nonce)public  pure returns(bytes32){... */\n    tag_3:\n      tag_5\n      0x04\n      dup1\n      calldatasize\n      sub\n      dup2\n      add\n      swap1\n      tag_6\n      swap2\n      swap1\n      tag_7\n      jump\t// in\n    tag_6:\n      tag_8\n      jump\t// in\n    tag_5:\n      mload(0x40)\n      tag_9\n      swap2\n      swap1\n      tag_10\n      jump\t// in\n    tag_9:\n      mload(0x40)\n      dup1\n      swap2\n      sub\n      swap1\n      return\n        /* \"contracts/VerifySignature.sol\":301:490  function getEthSignedMessageHash(bytes32 _messageHash)public pure returns(bytes32)... */\n    tag_4:\n      tag_11\n      0x04\n      dup1\n      calldatasize\n      sub\n      dup2\n      add\n      swap1\n      tag_12\n      swap2\n      swap1\n      tag_13\n      jump\t// in\n    tag_12:\n      tag_14\n      jump\t// in\n    tag_11:\n      mload(0x40)\n      tag_15\n      swap2\n      swap1\n      tag_10\n      jump\t// in\n    tag_15:\n      mload(0x40)\n      dup1\n      swap2\n      sub\n      swap1\n      return\n        /* \"contracts/VerifySignature.sol\":89:295  function getMessageHash(address _to, uint256 _amount, string memory _message, uint256 _nonce)public  pure returns(bytes32){... */\n    tag_8:\n        /* \"contracts/VerifySignature.sol\":203:210  bytes32 */\n      0x00\n        /* \"contracts/VerifySignature.sol\":256:259  _to */\n      dup5\n        /* \"contracts/VerifySignature.sol\":261:268  _amount */\n      dup5\n        /* \"contracts/VerifySignature.sol\":270:278  _message */\n      dup5\n        /* \"contracts/VerifySignature.sol\":280:286  _nonce */\n      dup5\n        /* \"contracts/VerifySignature.sol\":239:287  abi.encodePacked(_to, _amount, _message, _nonce) */\n      add(0x20, mload(0x40))\n      tag_17\n      swap5\n      swap4\n      swap3\n      swap2\n      swap1\n      tag_18\n      jump\t// in\n    tag_17:\n      mload(0x40)\n      0x20\n      dup2\n      dup4\n      sub\n      sub\n      dup2\n      mstore\n      swap1\n      0x40\n      mstore\n        /* \"contracts/VerifySignature.sol\":229:288  keccak256(abi.encodePacked(_to, _amount, _message, _nonce)) */\n      dup1\n      mload\n      swap1\n      0x20\n      add\n      keccak256\n        /* \"contracts/VerifySignature.sol\":221:288  return  keccak256(abi.encodePacked(_to, _amount, _message, _nonce)) */\n      swap1\n      pop\n        /* \"contracts/VerifySignature.sol\":89:295  function getMessageHash(address _to, uint256 _amount, string memory _message, uint256 _nonce)public  pure returns(bytes32){... */\n      swap5\n      swap4\n      pop\n      pop\n      pop\n      pop\n      jump\t// out\n        /* \"contracts/VerifySignature.sol\":301:490  function getEthSignedMessageHash(bytes32 _messageHash)public pure returns(bytes32)... */\n    tag_14:\n        /* \"contracts/VerifySignature.sol\":375:382  bytes32 */\n      0x00\n        /* \"contracts/VerifySignature.sol\":469:481  _messageHash */\n      dup2\n        /* \"contracts/VerifySignature.sol\":416:482  abi.encodePacked(\"\\x19Ethereum Signed Message:\\n32\", _messageHash) */\n      add(0x20, mload(0x40))\n      tag_20\n      swap2\n      swap1\n      tag_21\n      jump\t// in\n    tag_20:\n      mload(0x40)\n      0x20\n      dup2\n      dup4\n      sub\n      sub\n      dup2\n      mstore\n      swap1\n      0x40\n      mstore\n        /* \"contracts/VerifySignature.sol\":406:483  keccak256(abi.encodePacked(\"\\x19Ethereum Signed Message:\\n32\", _messageHash)) */\n      dup1\n      mload\n      swap1\n      0x20\n      add\n      keccak256\n        /* \"contracts/VerifySignature.sol\":398:483  return  keccak256(abi.encodePacked(\"\\x19Ethereum Signed Message:\\n32\", _messageHash)) */\n      swap1\n      pop\n        /* \"contracts/VerifySignature.sol\":301:490  function getEthSignedMessageHash(bytes32 _messageHash)public pure returns(bytes32)... */\n      swap2\n      swap1\n      pop\n      jump\t// out\n        /* \"#utility.yul\":7:82   */\n    tag_22:\n        /* \"#utility.yul\":40:46   */\n      0x00\n        /* \"#utility.yul\":73:75   */\n      0x40\n        /* \"#utility.yul\":67:76   */\n      mload\n        /* \"#utility.yul\":57:76   */\n      swap1\n      pop\n        /* \"#utility.yul\":7:82   */\n      swap1\n      jump\t// out\n        /* \"#utility.yul\":88:205   */\n    tag_23:\n        /* \"#utility.yul\":197:198   */\n      0x00\n        /* \"#utility.yul\":194:195   */\n      0x00\n        /* \"#utility.yul\":187:199   */\n      revert\n        /* \"#utility.yul\":211:328   */\n    tag_24:\n        /* \"#utility.yul\":320:321   */\n      0x00\n        /* \"#utility.yul\":317:318   */\n      0x00\n        /* \"#utility.yul\":310:322   */\n      revert\n        /* \"#utility.yul\":334:460   */\n    tag_25:\n        /* \"#utility.yul\":371:378   */\n      0x00\n        /* \"#utility.yul\":411:453   */\n      0xffffffffffffffffffffffffffffffffffffffff\n        /* \"#utility.yul\":404:409   */\n      dup3\n        /* \"#utility.yul\":400:454   */\n      and\n        /* \"#utility.yul\":389:454   */\n      swap1\n      pop\n        /* \"#utility.yul\":334:460   */\n      swap2\n      swap1\n      pop\n      jump\t// out\n        /* \"#utility.yul\":466:562   */\n    tag_26:\n        /* \"#utility.yul\":503:510   */\n      0x00\n        /* \"#utility.yul\":532:556   */\n      tag_66\n        /* \"#utility.yul\":550:555   */\n      dup3\n        /* \"#utility.yul\":532:556   */\n      tag_25\n      jump\t// in\n    tag_66:\n        /* \"#utility.yul\":521:556   */\n      swap1\n      pop\n        /* \"#utility.yul\":466:562   */\n      swap2\n      swap1\n      pop\n      jump\t// out\n        /* \"#utility.yul\":568:690   */\n    tag_27:\n        /* \"#utility.yul\":641:665   */\n      tag_68\n        /* \"#utility.yul\":659:664   */\n      dup2\n        /* \"#utility.yul\":641:665   */\n      tag_26\n      jump\t// in\n    tag_68:\n        /* \"#utility.yul\":634:639   */\n      dup2\n        /* \"#utility.yul\":631:666   */\n      eq\n        /* \"#utility.yul\":621:684   */\n      tag_69\n      jumpi\n        /* \"#utility.yul\":680:681   */\n      0x00\n        /* \"#utility.yul\":677:678   */\n      0x00\n        /* \"#utility.yul\":670:682   */\n      revert\n        /* \"#utility.yul\":621:684   */\n    tag_69:\n        /* \"#utility.yul\":568:690   */\n      pop\n      jump\t// out\n        /* \"#utility.yul\":696:835   */\n    tag_28:\n        /* \"#utility.yul\":742:747   */\n      0x00\n        /* \"#utility.yul\":780:786   */\n      dup2\n        /* \"#utility.yul\":767:787   */\n      calldataload\n        /* \"#utility.yul\":758:787   */\n      swap1\n      pop\n        /* \"#utility.yul\":796:829   */\n      tag_71\n        /* \"#utility.yul\":823:828   */\n      dup2\n        /* \"#utility.yul\":796:829   */\n      tag_27\n      jump\t// in\n    tag_71:\n        /* \"#utility.yul\":696:835   */\n      swap3\n      swap2\n      pop\n      pop\n      jump\t// out\n        /* \"#utility.yul\":841:918   */\n    tag_29:\n        /* \"#utility.yul\":878:885   */\n      0x00\n        /* \"#utility.yul\":907:912   */\n      dup2\n        /* \"#utility.yul\":896:912   */\n      swap1\n      pop\n        /* \"#utility.yul\":841:918   */\n      swap2\n      swap1\n      pop\n      jump\t// out\n        /* \"#utility.yul\":924:1046   */\n    tag_30:\n        /* \"#utility.yul\":997:1021   */\n      tag_74\n        /* \"#utility.yul\":1015:1020   */\n      dup2\n        /* \"#utility.yul\":997:1021   */\n      tag_29\n      jump\t// in\n    tag_74:\n        /* \"#utility.yul\":990:995   */\n      dup2\n        /* \"#utility.yul\":987:1022   */\n      eq\n        /* \"#utility.yul\":977:1040   */\n      tag_75\n      jumpi\n        /* \"#utility.yul\":1036:1037   */\n      0x00\n        /* \"#utility.yul\":1033:1034   */\n      0x00\n        /* \"#utility.yul\":1026:1038   */\n      revert\n        /* \"#utility.yul\":977:1040   */\n    tag_75:\n        /* \"#utility.yul\":924:1046   */\n      pop\n      jump\t// out\n        /* \"#utility.yul\":1052:1191   */\n    tag_31:\n        /* \"#utility.yul\":1098:1103   */\n      0x00\n        /* \"#utility.yul\":1136:1142   */\n      dup2\n        /* \"#utility.yul\":1123:1143   */\n      calldataload\n        /* \"#utility.yul\":1114:1143   */\n      swap1\n      pop\n        /* \"#utility.yul\":1152:1185   */\n      tag_77\n        /* \"#utility.yul\":1179:1184   */\n      dup2\n        /* \"#utility.yul\":1152:1185   */\n      tag_30\n      jump\t// in\n    tag_77:\n        /* \"#utility.yul\":1052:1191   */\n      swap3\n      swap2\n      pop\n      pop\n      jump\t// out\n        /* \"#utility.yul\":1197:1314   */\n    tag_32:\n        /* \"#utility.yul\":1306:1307   */\n      0x00\n        /* \"#utility.yul\":1303:1304   */\n      0x00\n        /* \"#utility.yul\":1296:1308   */\n      revert\n        /* \"#utility.yul\":1320:1437   */\n    tag_33:\n        /* \"#utility.yul\":1429:1430   */\n      0x00\n        /* \"#utility.yul\":1426:1427   */\n      0x00\n        /* \"#utility.yul\":1419:1431   */\n      revert\n        /* \"#utility.yul\":1443:1545   */\n    tag_34:\n        /* \"#utility.yul\":1484:1490   */\n      0x00\n        /* \"#utility.yul\":1535:1537   */\n      0x1f\n        /* \"#utility.yul\":1531:1538   */\n      not\n        /* \"#utility.yul\":1526:1528   */\n      0x1f\n        /* \"#utility.yul\":1519:1524   */\n      dup4\n        /* \"#utility.yul\":1515:1529   */\n      add\n        /* \"#utility.yul\":1511:1539   */\n      and\n        /* \"#utility.yul\":1501:1539   */\n      swap1\n      pop\n        /* \"#utility.yul\":1443:1545   */\n      swap2\n      swap1\n      pop\n      jump\t// out\n        /* \"#utility.yul\":1551:1731   */\n    tag_35:\n        /* \"#utility.yul\":1599:1676   */\n      0x4e487b7100000000000000000000000000000000000000000000000000000000\n        /* \"#utility.yul\":1596:1597   */\n      0x00\n        /* \"#utility.yul\":1589:1677   */\n      mstore\n        /* \"#utility.yul\":1696:1700   */\n      0x41\n        /* \"#utility.yul\":1693:1694   */\n      0x04\n        /* \"#utility.yul\":1686:1701   */\n      mstore\n        /* \"#utility.yul\":1720:1724   */\n      0x24\n        /* \"#utility.yul\":1717:1718   */\n      0x00\n        /* \"#utility.yul\":1710:1725   */\n      revert\n        /* \"#utility.yul\":1737:2018   */\n    tag_36:\n        /* \"#utility.yul\":1820:1847   */\n      tag_83\n        /* \"#utility.yul\":1842:1846   */\n      dup3\n        /* \"#utility.yul\":1820:1847   */\n      tag_34\n      jump\t// in\n    tag_83:\n        /* \"#utility.yul\":1812:1818   */\n      dup2\n        /* \"#utility.yul\":1808:1848   */\n      add\n        /* \"#utility.yul\":1950:1956   */\n      dup2\n        /* \"#utility.yul\":1938:1948   */\n      dup2\n        /* \"#utility.yul\":1935:1957   */\n      lt\n        /* \"#utility.yul\":1914:1932   */\n      0xffffffffffffffff\n        /* \"#utility.yul\":1902:1912   */\n      dup3\n        /* \"#utility.yul\":1899:1933   */\n      gt\n        /* \"#utility.yul\":1896:1958   */\n      or\n        /* \"#utility.yul\":1893:1981   */\n      iszero\n      tag_84\n      jumpi\n        /* \"#utility.yul\":1961:1979   */\n      tag_85\n      tag_35\n      jump\t// in\n    tag_85:\n        /* \"#utility.yul\":1893:1981   */\n    tag_84:\n        /* \"#utility.yul\":2001:2011   */\n      dup1\n        /* \"#utility.yul\":1997:1999   */\n      0x40\n        /* \"#utility.yul\":1990:2012   */\n      mstore\n        /* \"#utility.yul\":1780:2018   */\n      pop\n        /* \"#utility.yul\":1737:2018   */\n      pop\n      pop\n      jump\t// out\n        /* \"#utility.yul\":2024:2153   */\n    tag_37:\n        /* \"#utility.yul\":2058:2064   */\n      0x00\n        /* \"#utility.yul\":2085:2105   */\n      tag_87\n      tag_22\n      jump\t// in\n    tag_87:\n        /* \"#utility.yul\":2075:2105   */\n      swap1\n      pop\n        /* \"#utility.yul\":2114:2147   */\n      tag_88\n        /* \"#utility.yul\":2142:2146   */\n      dup3\n        /* \"#utility.yul\":2134:2140   */\n      dup3\n        /* \"#utility.yul\":2114:2147   */\n      tag_36\n      jump\t// in\n    tag_88:\n        /* \"#utility.yul\":2024:2153   */\n      swap2\n      swap1\n      pop\n      jump\t// out\n        /* \"#utility.yul\":2159:2467   */\n    tag_38:\n        /* \"#utility.yul\":2221:2225   */\n      0x00\n        /* \"#utility.yul\":2311:2329   */\n      0xffffffffffffffff\n        /* \"#utility.yul\":2303:2309   */\n      dup3\n        /* \"#utility.yul\":2300:2330   */\n      gt\n        /* \"#utility.yul\":2297:2353   */\n      iszero\n      tag_90\n      jumpi\n        /* \"#utility.yul\":2333:2351   */\n      tag_91\n      tag_35\n      jump\t// in\n    tag_91:\n        /* \"#utility.yul\":2297:2353   */\n    tag_90:\n        /* \"#utility.yul\":2371:2400   */\n      tag_92\n        /* \"#utility.yul\":2393:2399   */\n      dup3\n        /* \"#utility.yul\":2371:2400   */\n      tag_34\n      jump\t// in\n    tag_92:\n        /* \"#utility.yul\":2363:2400   */\n      swap1\n      pop\n        /* \"#utility.yul\":2455:2459   */\n      0x20\n        /* \"#utility.yul\":2449:2453   */\n      dup2\n        /* \"#utility.yul\":2445:2460   */\n      add\n        /* \"#utility.yul\":2437:2460   */\n      swap1\n      pop\n        /* \"#utility.yul\":2159:2467   */\n      swap2\n      swap1\n      pop\n      jump\t// out\n        /* \"#utility.yul\":2473:2621   */\n    tag_39:\n        /* \"#utility.yul\":2571:2577   */\n      dup3\n        /* \"#utility.yul\":2566:2569   */\n      dup2\n        /* \"#utility.yul\":2561:2564   */\n      dup4\n        /* \"#utility.yul\":2548:2578   */\n      calldatacopy\n        /* \"#utility.yul\":2612:2613   */\n      0x00\n        /* \"#utility.yul\":2603:2609   */\n      dup4\n        /* \"#utility.yul\":2598:2601   */\n      dup4\n        /* \"#utility.yul\":2594:2610   */\n      add\n        /* \"#utility.yul\":2587:2614   */\n      mstore\n        /* \"#utility.yul\":2473:2621   */\n      pop\n      pop\n      pop\n      jump\t// out\n        /* \"#utility.yul\":2627:3052   */\n    tag_40:\n        /* \"#utility.yul\":2705:2710   */\n      0x00\n        /* \"#utility.yul\":2730:2796   */\n      tag_95\n        /* \"#utility.yul\":2746:2795   */\n      tag_96\n        /* \"#utility.yul\":2788:2794   */\n      dup5\n        /* \"#utility.yul\":2746:2795   */\n      tag_38\n      jump\t// in\n    tag_96:\n        /* \"#utility.yul\":2730:2796   */\n      tag_37\n      jump\t// in\n    tag_95:\n        /* \"#utility.yul\":2721:2796   */\n      swap1\n      pop\n        /* \"#utility.yul\":2819:2825   */\n      dup3\n        /* \"#utility.yul\":2812:2817   */\n      dup2\n        /* \"#utility.yul\":2805:2826   */\n      mstore\n        /* \"#utility.yul\":2857:2861   */\n      0x20\n        /* \"#utility.yul\":2850:2855   */\n      dup2\n        /* \"#utility.yul\":2846:2862   */\n      add\n        /* \"#utility.yul\":2895:2898   */\n      dup5\n        /* \"#utility.yul\":2886:2892   */\n      dup5\n        /* \"#utility.yul\":2881:2884   */\n      dup5\n        /* \"#utility.yul\":2877:2893   */\n      add\n        /* \"#utility.yul\":2874:2899   */\n      gt\n        /* \"#utility.yul\":2871:2983   */\n      iszero\n      tag_97\n      jumpi\n        /* \"#utility.yul\":2902:2981   */\n      tag_98\n      tag_33\n      jump\t// in\n    tag_98:\n        /* \"#utility.yul\":2871:2983   */\n    tag_97:\n        /* \"#utility.yul\":2992:3046   */\n      tag_99\n        /* \"#utility.yul\":3039:3045   */\n      dup5\n        /* \"#utility.yul\":3034:3037   */\n      dup3\n        /* \"#utility.yul\":3029:3032   */\n      dup6\n        /* \"#utility.yul\":2992:3046   */\n      tag_39\n      jump\t// in\n    tag_99:\n        /* \"#utility.yul\":2711:3052   */\n      pop\n        /* \"#utility.yul\":2627:3052   */\n      swap4\n      swap3\n      pop\n      pop\n      pop\n      jump\t// out\n        /* \"#utility.yul\":3072:3412   */\n    tag_41:\n        /* \"#utility.yul\":3128:3133   */\n      0x00\n        /* \"#utility.yul\":3177:3180   */\n      dup3\n        /* \"#utility.yul\":3170:3174   */\n      0x1f\n        /* \"#utility.yul\":3162:3168   */\n      dup4\n        /* \"#utility.yul\":3158:3175   */\n      add\n        /* \"#utility.yul\":3154:3181   */\n      slt\n        /* \"#utility.yul\":3144:3266   */\n      tag_101\n      jumpi\n        /* \"#utility.yul\":3185:3264   */\n      tag_102\n      tag_32\n      jump\t// in\n    tag_102:\n        /* \"#utility.yul\":3144:3266   */\n    tag_101:\n        /* \"#utility.yul\":3302:3308   */\n      dup2\n        /* \"#utility.yul\":3289:3309   */\n      calldataload\n        /* \"#utility.yul\":3327:3406   */\n      tag_103\n        /* \"#utility.yul\":3402:3405   */\n      dup5\n        /* \"#utility.yul\":3394:3400   */\n      dup3\n        /* \"#utility.yul\":3387:3391   */\n      0x20\n        /* \"#utility.yul\":3379:3385   */\n      dup7\n        /* \"#utility.yul\":3375:3392   */\n      add\n        /* \"#utility.yul\":3327:3406   */\n      tag_40\n      jump\t// in\n    tag_103:\n        /* \"#utility.yul\":3318:3406   */\n      swap2\n      pop\n        /* \"#utility.yul\":3134:3412   */\n      pop\n        /* \"#utility.yul\":3072:3412   */\n      swap3\n      swap2\n      pop\n      pop\n      jump\t// out\n        /* \"#utility.yul\":3418:4363   */\n    tag_7:\n        /* \"#utility.yul\":3514:3520   */\n      0x00\n        /* \"#utility.yul\":3522:3528   */\n      0x00\n        /* \"#utility.yul\":3530:3536   */\n      0x00\n        /* \"#utility.yul\":3538:3544   */\n      0x00\n        /* \"#utility.yul\":3587:3590   */\n      0x80\n        /* \"#utility.yul\":3575:3584   */\n      dup6\n        /* \"#utility.yul\":3566:3573   */\n      dup8\n        /* \"#utility.yul\":3562:3585   */\n      sub\n        /* \"#utility.yul\":3558:3591   */\n      slt\n        /* \"#utility.yul\":3555:3675   */\n      iszero\n      tag_105\n      jumpi\n        /* \"#utility.yul\":3594:3673   */\n      tag_106\n      tag_23\n      jump\t// in\n    tag_106:\n        /* \"#utility.yul\":3555:3675   */\n    tag_105:\n        /* \"#utility.yul\":3714:3715   */\n      0x00\n        /* \"#utility.yul\":3739:3792   */\n      tag_107\n        /* \"#utility.yul\":3784:3791   */\n      dup8\n        /* \"#utility.yul\":3775:3781   */\n      dup3\n        /* \"#utility.yul\":3764:3773   */\n      dup9\n        /* \"#utility.yul\":3760:3782   */\n      add\n        /* \"#utility.yul\":3739:3792   */\n      tag_28\n      jump\t// in\n    tag_107:\n        /* \"#utility.yul\":3729:3792   */\n      swap5\n      pop\n        /* \"#utility.yul\":3685:3802   */\n      pop\n        /* \"#utility.yul\":3841:3843   */\n      0x20\n        /* \"#utility.yul\":3867:3920   */\n      tag_108\n        /* \"#utility.yul\":3912:3919   */\n      dup8\n        /* \"#utility.yul\":3903:3909   */\n      dup3\n        /* \"#utility.yul\":3892:3901   */\n      dup9\n        /* \"#utility.yul\":3888:3910   */\n      add\n        /* \"#utility.yul\":3867:3920   */\n      tag_31\n      jump\t// in\n    tag_108:\n        /* \"#utility.yul\":3857:3920   */\n      swap4\n      pop\n        /* \"#utility.yul\":3812:3930   */\n      pop\n        /* \"#utility.yul\":3997:3999   */\n      0x40\n        /* \"#utility.yul\":3986:3995   */\n      dup6\n        /* \"#utility.yul\":3982:4000   */\n      add\n        /* \"#utility.yul\":3969:4001   */\n      calldataload\n        /* \"#utility.yul\":4028:4046   */\n      0xffffffffffffffff\n        /* \"#utility.yul\":4020:4026   */\n      dup2\n        /* \"#utility.yul\":4017:4047   */\n      gt\n        /* \"#utility.yul\":4014:4131   */\n      iszero\n      tag_109\n      jumpi\n        /* \"#utility.yul\":4050:4129   */\n      tag_110\n      tag_24\n      jump\t// in\n    tag_110:\n        /* \"#utility.yul\":4014:4131   */\n    tag_109:\n        /* \"#utility.yul\":4155:4218   */\n      tag_111\n        /* \"#utility.yul\":4210:4217   */\n      dup8\n        /* \"#utility.yul\":4201:4207   */\n      dup3\n        /* \"#utility.yul\":4190:4199   */\n      dup9\n        /* \"#utility.yul\":4186:4208   */\n      add\n        /* \"#utility.yul\":4155:4218   */\n      tag_41\n      jump\t// in\n    tag_111:\n        /* \"#utility.yul\":4145:4218   */\n      swap3\n      pop\n        /* \"#utility.yul\":3940:4228   */\n      pop\n        /* \"#utility.yul\":4267:4269   */\n      0x60\n        /* \"#utility.yul\":4293:4346   */\n      tag_112\n        /* \"#utility.yul\":4338:4345   */\n      dup8\n        /* \"#utility.yul\":4329:4335   */\n      dup3\n        /* \"#utility.yul\":4318:4327   */\n      dup9\n        /* \"#utility.yul\":4314:4336   */\n      add\n        /* \"#utility.yul\":4293:4346   */\n      tag_31\n      jump\t// in\n    tag_112:\n        /* \"#utility.yul\":4283:4346   */\n      swap2\n      pop\n        /* \"#utility.yul\":4238:4356   */\n      pop\n        /* \"#utility.yul\":3418:4363   */\n      swap3\n      swap6\n      swap2\n      swap5\n      pop\n      swap3\n      pop\n      jump\t// out\n        /* \"#utility.yul\":4369:4446   */\n    tag_42:\n        /* \"#utility.yul\":4406:4413   */\n      0x00\n        /* \"#utility.yul\":4435:4440   */\n      dup2\n        /* \"#utility.yul\":4424:4440   */\n      swap1\n      pop\n        /* \"#utility.yul\":4369:4446   */\n      swap2\n      swap1\n      pop\n      jump\t// out\n        /* \"#utility.yul\":4452:4570   */\n    tag_43:\n        /* \"#utility.yul\":4539:4563   */\n      tag_115\n        /* \"#utility.yul\":4557:4562   */\n      dup2\n        /* \"#utility.yul\":4539:4563   */\n      tag_42\n      jump\t// in\n    tag_115:\n        /* \"#utility.yul\":4534:4537   */\n      dup3\n        /* \"#utility.yul\":4527:4564   */\n      mstore\n        /* \"#utility.yul\":4452:4570   */\n      pop\n      pop\n      jump\t// out\n        /* \"#utility.yul\":4576:4798   */\n    tag_10:\n        /* \"#utility.yul\":4669:4673   */\n      0x00\n        /* \"#utility.yul\":4707:4709   */\n      0x20\n        /* \"#utility.yul\":4696:4705   */\n      dup3\n        /* \"#utility.yul\":4692:4710   */\n      add\n        /* \"#utility.yul\":4684:4710   */\n      swap1\n      pop\n        /* \"#utility.yul\":4720:4791   */\n      tag_117\n        /* \"#utility.yul\":4788:4789   */\n      0x00\n        /* \"#utility.yul\":4777:4786   */\n      dup4\n        /* \"#utility.yul\":4773:4790   */\n      add\n        /* \"#utility.yul\":4764:4770   */\n      dup5\n        /* \"#utility.yul\":4720:4791   */\n      tag_43\n      jump\t// in\n    tag_117:\n        /* \"#utility.yul\":4576:4798   */\n      swap3\n      swap2\n      pop\n      pop\n      jump\t// out\n        /* \"#utility.yul\":4804:4926   */\n    tag_44:\n        /* \"#utility.yul\":4877:4901   */\n      tag_119\n        /* \"#utility.yul\":4895:4900   */\n      dup2\n        /* \"#utility.yul\":4877:4901   */\n      tag_42\n      jump\t// in\n    tag_119:\n        /* \"#utility.yul\":4870:4875   */\n      dup2\n        /* \"#utility.yul\":4867:4902   */\n      eq\n        /* \"#utility.yul\":4857:4920   */\n      tag_120\n      jumpi\n        /* \"#utility.yul\":4916:4917   */\n      0x00\n        /* \"#utility.yul\":4913:4914   */\n      0x00\n        /* \"#utility.yul\":4906:4918   */\n      revert\n        /* \"#utility.yul\":4857:4920   */\n    tag_120:\n        /* \"#utility.yul\":4804:4926   */\n      pop\n      jump\t// out\n        /* \"#utility.yul\":4932:5071   */\n    tag_45:\n        /* \"#utility.yul\":4978:4983   */\n      0x00\n        /* \"#utility.yul\":5016:5022   */\n      dup2\n        /* \"#utility.yul\":5003:5023   */\n      calldataload\n        /* \"#utility.yul\":4994:5023   */\n      swap1\n      pop\n        /* \"#utility.yul\":5032:5065   */\n      tag_122\n        /* \"#utility.yul\":5059:5064   */\n      dup2\n        /* \"#utility.yul\":5032:5065   */\n      tag_44\n      jump\t// in\n    tag_122:\n        /* \"#utility.yul\":4932:5071   */\n      swap3\n      swap2\n      pop\n      pop\n      jump\t// out\n        /* \"#utility.yul\":5077:5406   */\n    tag_13:\n        /* \"#utility.yul\":5136:5142   */\n      0x00\n        /* \"#utility.yul\":5185:5187   */\n      0x20\n        /* \"#utility.yul\":5173:5182   */\n      dup3\n        /* \"#utility.yul\":5164:5171   */\n      dup5\n        /* \"#utility.yul\":5160:5183   */\n      sub\n        /* \"#utility.yul\":5156:5188   */\n      slt\n        /* \"#utility.yul\":5153:5272   */\n      iszero\n      tag_124\n      jumpi\n        /* \"#utility.yul\":5191:5270   */\n      tag_125\n      tag_23\n      jump\t// in\n    tag_125:\n        /* \"#utility.yul\":5153:5272   */\n    tag_124:\n        /* \"#utility.yul\":5311:5312   */\n      0x00\n        /* \"#utility.yul\":5336:5389   */\n      tag_126\n        /* \"#utility.yul\":5381:5388   */\n      dup5\n        /* \"#utility.yul\":5372:5378   */\n      dup3\n        /* \"#utility.yul\":5361:5370   */\n      dup6\n        /* \"#utility.yul\":5357:5379   */\n      add\n        /* \"#utility.yul\":5336:5389   */\n      tag_45\n      jump\t// in\n    tag_126:\n        /* \"#utility.yul\":5326:5389   */\n      swap2\n      pop\n        /* \"#utility.yul\":5282:5399   */\n      pop\n        /* \"#utility.yul\":5077:5406   */\n      swap3\n      swap2\n      pop\n      pop\n      jump\t// out\n        /* \"#utility.yul\":5412:5506   */\n    tag_46:\n        /* \"#utility.yul\":5445:5453   */\n      0x00\n        /* \"#utility.yul\":5493:5498   */\n      dup2\n        /* \"#utility.yul\":5489:5491   */\n      0x60\n        /* \"#utility.yul\":5485:5499   */\n      shl\n        /* \"#utility.yul\":5464:5499   */\n      swap1\n      pop\n        /* \"#utility.yul\":5412:5506   */\n      swap2\n      swap1\n      pop\n      jump\t// out\n        /* \"#utility.yul\":5512:5606   */\n    tag_47:\n        /* \"#utility.yul\":5551:5558   */\n      0x00\n        /* \"#utility.yul\":5580:5600   */\n      tag_129\n        /* \"#utility.yul\":5594:5599   */\n      dup3\n        /* \"#utility.yul\":5580:5600   */\n      tag_46\n      jump\t// in\n    tag_129:\n        /* \"#utility.yul\":5569:5600   */\n      swap1\n      pop\n        /* \"#utility.yul\":5512:5606   */\n      swap2\n      swap1\n      pop\n      jump\t// out\n        /* \"#utility.yul\":5612:5712   */\n    tag_48:\n        /* \"#utility.yul\":5651:5658   */\n      0x00\n        /* \"#utility.yul\":5680:5706   */\n      tag_131\n        /* \"#utility.yul\":5700:5705   */\n      dup3\n        /* \"#utility.yul\":5680:5706   */\n      tag_47\n      jump\t// in\n    tag_131:\n        /* \"#utility.yul\":5669:5706   */\n      swap1\n      pop\n        /* \"#utility.yul\":5612:5712   */\n      swap2\n      swap1\n      pop\n      jump\t// out\n        /* \"#utility.yul\":5718:5875   */\n    tag_49:\n        /* \"#utility.yul\":5823:5868   */\n      tag_133\n        /* \"#utility.yul\":5843:5867   */\n      tag_134\n        /* \"#utility.yul\":5861:5866   */\n      dup3\n        /* \"#utility.yul\":5843:5867   */\n      tag_26\n      jump\t// in\n    tag_134:\n        /* \"#utility.yul\":5823:5868   */\n      tag_48\n      jump\t// in\n    tag_133:\n        /* \"#utility.yul\":5818:5821   */\n      dup3\n        /* \"#utility.yul\":5811:5869   */\n      mstore\n        /* \"#utility.yul\":5718:5875   */\n      pop\n      pop\n      jump\t// out\n        /* \"#utility.yul\":5881:5960   */\n    tag_50:\n        /* \"#utility.yul\":5920:5927   */\n      0x00\n        /* \"#utility.yul\":5949:5954   */\n      dup2\n        /* \"#utility.yul\":5938:5954   */\n      swap1\n      pop\n        /* \"#utility.yul\":5881:5960   */\n      swap2\n      swap1\n      pop\n      jump\t// out\n        /* \"#utility.yul\":5966:6123   */\n    tag_51:\n        /* \"#utility.yul\":6071:6116   */\n      tag_137\n        /* \"#utility.yul\":6091:6115   */\n      tag_138\n        /* \"#utility.yul\":6109:6114   */\n      dup3\n        /* \"#utility.yul\":6091:6115   */\n      tag_29\n      jump\t// in\n    tag_138:\n        /* \"#utility.yul\":6071:6116   */\n      tag_50\n      jump\t// in\n    tag_137:\n        /* \"#utility.yul\":6066:6069   */\n      dup3\n        /* \"#utility.yul\":6059:6117   */\n      mstore\n        /* \"#utility.yul\":5966:6123   */\n      pop\n      pop\n      jump\t// out\n        /* \"#utility.yul\":6129:6228   */\n    tag_52:\n        /* \"#utility.yul\":6181:6187   */\n      0x00\n        /* \"#utility.yul\":6215:6220   */\n      dup2\n        /* \"#utility.yul\":6209:6221   */\n      mload\n        /* \"#utility.yul\":6199:6221   */\n      swap1\n      pop\n        /* \"#utility.yul\":6129:6228   */\n      swap2\n      swap1\n      pop\n      jump\t// out\n        /* \"#utility.yul\":6234:6382   */\n    tag_53:\n        /* \"#utility.yul\":6336:6347   */\n      0x00\n        /* \"#utility.yul\":6373:6376   */\n      dup2\n        /* \"#utility.yul\":6358:6376   */\n      swap1\n      pop\n        /* \"#utility.yul\":6234:6382   */\n      swap3\n      swap2\n      pop\n      pop\n      jump\t// out\n        /* \"#utility.yul\":6388:6527   */\n    tag_54:\n        /* \"#utility.yul\":6477:6483   */\n      dup3\n        /* \"#utility.yul\":6472:6475   */\n      dup2\n        /* \"#utility.yul\":6467:6470   */\n      dup4\n        /* \"#utility.yul\":6461:6484   */\n      mcopy\n        /* \"#utility.yul\":6518:6519   */\n      0x00\n        /* \"#utility.yul\":6509:6515   */\n      dup4\n        /* \"#utility.yul\":6504:6507   */\n      dup4\n        /* \"#utility.yul\":6500:6516   */\n      add\n        /* \"#utility.yul\":6493:6520   */\n      mstore\n        /* \"#utility.yul\":6388:6527   */\n      pop\n      pop\n      pop\n      jump\t// out\n        /* \"#utility.yul\":6533:6923   */\n    tag_55:\n        /* \"#utility.yul\":6639:6642   */\n      0x00\n        /* \"#utility.yul\":6667:6706   */\n      tag_143\n        /* \"#utility.yul\":6700:6705   */\n      dup3\n        /* \"#utility.yul\":6667:6706   */\n      tag_52\n      jump\t// in\n    tag_143:\n        /* \"#utility.yul\":6722:6811   */\n      tag_144\n        /* \"#utility.yul\":6804:6810   */\n      dup2\n        /* \"#utility.yul\":6799:6802   */\n      dup6\n        /* \"#utility.yul\":6722:6811   */\n      tag_53\n      jump\t// in\n    tag_144:\n        /* \"#utility.yul\":6715:6811   */\n      swap4\n      pop\n        /* \"#utility.yul\":6820:6885   */\n      tag_145\n        /* \"#utility.yul\":6878:6884   */\n      dup2\n        /* \"#utility.yul\":6873:6876   */\n      dup6\n        /* \"#utility.yul\":6866:6870   */\n      0x20\n        /* \"#utility.yul\":6859:6864   */\n      dup7\n        /* \"#utility.yul\":6855:6871   */\n      add\n        /* \"#utility.yul\":6820:6885   */\n      tag_54\n      jump\t// in\n    tag_145:\n        /* \"#utility.yul\":6910:6916   */\n      dup1\n        /* \"#utility.yul\":6905:6908   */\n      dup5\n        /* \"#utility.yul\":6901:6917   */\n      add\n        /* \"#utility.yul\":6894:6917   */\n      swap2\n      pop\n        /* \"#utility.yul\":6643:6923   */\n      pop\n        /* \"#utility.yul\":6533:6923   */\n      swap3\n      swap2\n      pop\n      pop\n      jump\t// out\n        /* \"#utility.yul\":6929:7627   */\n    tag_18:\n        /* \"#utility.yul\":7145:7148   */\n      0x00\n        /* \"#utility.yul\":7160:7235   */\n      tag_147\n        /* \"#utility.yul\":7231:7234   */\n      dup3\n        /* \"#utility.yul\":7222:7228   */\n      dup8\n        /* \"#utility.yul\":7160:7235   */\n      tag_49\n      jump\t// in\n    tag_147:\n        /* \"#utility.yul\":7260:7262   */\n      0x14\n        /* \"#utility.yul\":7255:7258   */\n      dup3\n        /* \"#utility.yul\":7251:7263   */\n      add\n        /* \"#utility.yul\":7244:7263   */\n      swap2\n      pop\n        /* \"#utility.yul\":7273:7348   */\n      tag_148\n        /* \"#utility.yul\":7344:7347   */\n      dup3\n        /* \"#utility.yul\":7335:7341   */\n      dup7\n        /* \"#utility.yul\":7273:7348   */\n      tag_51\n      jump\t// in\n    tag_148:\n        /* \"#utility.yul\":7373:7375   */\n      0x20\n        /* \"#utility.yul\":7368:7371   */\n      dup3\n        /* \"#utility.yul\":7364:7376   */\n      add\n        /* \"#utility.yul\":7357:7376   */\n      swap2\n      pop\n        /* \"#utility.yul\":7393:7488   */\n      tag_149\n        /* \"#utility.yul\":7484:7487   */\n      dup3\n        /* \"#utility.yul\":7475:7481   */\n      dup6\n        /* \"#utility.yul\":7393:7488   */\n      tag_55\n      jump\t// in\n    tag_149:\n        /* \"#utility.yul\":7386:7488   */\n      swap2\n      pop\n        /* \"#utility.yul\":7498:7573   */\n      tag_150\n        /* \"#utility.yul\":7569:7572   */\n      dup3\n        /* \"#utility.yul\":7560:7566   */\n      dup5\n        /* \"#utility.yul\":7498:7573   */\n      tag_51\n      jump\t// in\n    tag_150:\n        /* \"#utility.yul\":7598:7600   */\n      0x20\n        /* \"#utility.yul\":7593:7596   */\n      dup3\n        /* \"#utility.yul\":7589:7601   */\n      add\n        /* \"#utility.yul\":7582:7601   */\n      swap2\n      pop\n        /* \"#utility.yul\":7618:7621   */\n      dup2\n        /* \"#utility.yul\":7611:7621   */\n      swap1\n      pop\n        /* \"#utility.yul\":6929:7627   */\n      swap6\n      swap5\n      pop\n      pop\n      pop\n      pop\n      pop\n      jump\t// out\n        /* \"#utility.yul\":7633:7847   */\n    tag_56:\n        /* \"#utility.yul\":7773:7839   */\n      0x19457468657265756d205369676e6564204d6573736167653a0a333200000000\n        /* \"#utility.yul\":7769:7770   */\n      0x00\n        /* \"#utility.yul\":7761:7767   */\n      dup3\n        /* \"#utility.yul\":7757:7771   */\n      add\n        /* \"#utility.yul\":7750:7840   */\n      mstore\n        /* \"#utility.yul\":7633:7847   */\n      pop\n      jump\t// out\n        /* \"#utility.yul\":7853:8255   */\n    tag_57:\n        /* \"#utility.yul\":8013:8016   */\n      0x00\n        /* \"#utility.yul\":8034:8119   */\n      tag_153\n        /* \"#utility.yul\":8116:8118   */\n      0x1c\n        /* \"#utility.yul\":8111:8114   */\n      dup4\n        /* \"#utility.yul\":8034:8119   */\n      tag_53\n      jump\t// in\n    tag_153:\n        /* \"#utility.yul\":8027:8119   */\n      swap2\n      pop\n        /* \"#utility.yul\":8128:8221   */\n      tag_154\n        /* \"#utility.yul\":8217:8220   */\n      dup3\n        /* \"#utility.yul\":8128:8221   */\n      tag_56\n      jump\t// in\n    tag_154:\n        /* \"#utility.yul\":8246:8248   */\n      0x1c\n        /* \"#utility.yul\":8241:8244   */\n      dup3\n        /* \"#utility.yul\":8237:8249   */\n      add\n        /* \"#utility.yul\":8230:8249   */\n      swap1\n      pop\n        /* \"#utility.yul\":7853:8255   */\n      swap2\n      swap1\n      pop\n      jump\t// out\n        /* \"#utility.yul\":8261:8340   */\n    tag_58:\n        /* \"#utility.yul\":8300:8307   */\n      0x00\n        /* \"#utility.yul\":8329:8334   */\n      dup2\n        /* \"#utility.yul\":8318:8334   */\n      swap1\n      pop\n        /* \"#utility.yul\":8261:8340   */\n      swap2\n      swap1\n      pop\n      jump\t// out\n        /* \"#utility.yul\":8346:8503   */\n    tag_59:\n        /* \"#utility.yul\":8451:8496   */\n      tag_157\n        /* \"#utility.yul\":8471:8495   */\n      tag_158\n        /* \"#utility.yul\":8489:8494   */\n      dup3\n        /* \"#utility.yul\":8471:8495   */\n      tag_42\n      jump\t// in\n    tag_158:\n        /* \"#utility.yul\":8451:8496   */\n      tag_58\n      jump\t// in\n    tag_157:\n        /* \"#utility.yul\":8446:8449   */\n      dup3\n        /* \"#utility.yul\":8439:8497   */\n      mstore\n        /* \"#utility.yul\":8346:8503   */\n      pop\n      pop\n      jump\t// out\n        /* \"#utility.yul\":8509:9031   */\n    tag_21:\n        /* \"#utility.yul\":8722:8725   */\n      0x00\n        /* \"#utility.yul\":8744:8892   */\n      tag_160\n        /* \"#utility.yul\":8888:8891   */\n      dup3\n        /* \"#utility.yul\":8744:8892   */\n      tag_57\n      jump\t// in\n    tag_160:\n        /* \"#utility.yul\":8737:8892   */\n      swap2\n      pop\n        /* \"#utility.yul\":8902:8977   */\n      tag_161\n        /* \"#utility.yul\":8973:8976   */\n      dup3\n        /* \"#utility.yul\":8964:8970   */\n      dup5\n        /* \"#utility.yul\":8902:8977   */\n      tag_59\n      jump\t// in\n    tag_161:\n        /* \"#utility.yul\":9002:9004   */\n      0x20\n        /* \"#utility.yul\":8997:9000   */\n      dup3\n        /* \"#utility.yul\":8993:9005   */\n      add\n        /* \"#utility.yul\":8986:9005   */\n      swap2\n      pop\n        /* \"#utility.yul\":9022:9025   */\n      dup2\n        /* \"#utility.yul\":9015:9025   */\n      swap1\n      pop\n        /* \"#utility.yul\":8509:9031   */\n      swap3\n      swap2\n      pop\n      pop\n      jump\t// out\n\n    auxdata: 0xa2646970667358221220488f5445e76fb78f3d633d6a8a602b0211031c73ddd028630493939c0f6c35c864736f6c634300081e0033\n}\n",
				"bytecode": {
					"linkReferences": {},
					"object": "6080604052348015600e575f5ffd5b506105a48061001c5f395ff3fe608060405234801561000f575f5ffd5b5060043610610034575f3560e01c8063a35f8a4014610038578063fa54080114610068575b5f5ffd5b610052600480360381019061004d91906102d9565b610098565b60405161005f9190610371565b60405180910390f35b610082600480360381019061007d91906103b4565b6100d0565b60405161008f9190610371565b60405180910390f35b5f848484846040516020016100b09493929190610496565b604051602081830303815290604052805190602001209050949350505050565b5f816040516020016100e29190610549565b604051602081830303815290604052805190602001209050919050565b5f604051905090565b5f5ffd5b5f5ffd5b5f73ffffffffffffffffffffffffffffffffffffffff82169050919050565b5f61013982610110565b9050919050565b6101498161012f565b8114610153575f5ffd5b50565b5f8135905061016481610140565b92915050565b5f819050919050565b61017c8161016a565b8114610186575f5ffd5b50565b5f8135905061019781610173565b92915050565b5f5ffd5b5f5ffd5b5f601f19601f8301169050919050565b7f4e487b71000000000000000000000000000000000000000000000000000000005f52604160045260245ffd5b6101eb826101a5565b810181811067ffffffffffffffff8211171561020a576102096101b5565b5b80604052505050565b5f61021c6100ff565b905061022882826101e2565b919050565b5f67ffffffffffffffff821115610247576102466101b5565b5b610250826101a5565b9050602081019050919050565b828183375f83830152505050565b5f61027d6102788461022d565b610213565b905082815260208101848484011115610299576102986101a1565b5b6102a484828561025d565b509392505050565b5f82601f8301126102c0576102bf61019d565b5b81356102d084826020860161026b565b91505092915050565b5f5f5f5f608085870312156102f1576102f0610108565b5b5f6102fe87828801610156565b945050602061030f87828801610189565b935050604085013567ffffffffffffffff8111156103305761032f61010c565b5b61033c878288016102ac565b925050606061034d87828801610189565b91505092959194509250565b5f819050919050565b61036b81610359565b82525050565b5f6020820190506103845f830184610362565b92915050565b61039381610359565b811461039d575f5ffd5b50565b5f813590506103ae8161038a565b92915050565b5f602082840312156103c9576103c8610108565b5b5f6103d6848285016103a0565b91505092915050565b5f8160601b9050919050565b5f6103f5826103df565b9050919050565b5f610406826103eb565b9050919050565b61041e6104198261012f565b6103fc565b82525050565b5f819050919050565b61043e6104398261016a565b610424565b82525050565b5f81519050919050565b5f81905092915050565b8281835e5f83830152505050565b5f61047082610444565b61047a818561044e565b935061048a818560208601610458565b80840191505092915050565b5f6104a1828761040d565b6014820191506104b1828661042d565b6020820191506104c18285610466565b91506104cd828461042d565b60208201915081905095945050505050565b7f19457468657265756d205369676e6564204d6573736167653a0a3332000000005f82015250565b5f610513601c8361044e565b915061051e826104df565b601c82019050919050565b5f819050919050565b61054361053e82610359565b610529565b82525050565b5f61055382610507565b915061055f8284610532565b6020820191508190509291505056fea2646970667358221220488f5445e76fb78f3d633d6a8a602b0211031c73ddd028630493939c0f6c35c864736f6c634300081e0033",
					"opcodes": "PUSH1 0x80 PUSH1 0x40 MSTORE CALLVALUE DUP1 ISZERO PUSH1 0xE JUMPI PUSH0 PUSH0 REVERT JUMPDEST POP PUSH2 0x5A4 DUP1 PUSH2 0x1C PUSH0 CODECOPY PUSH0 RETURN INVALID PUSH1 0x80 PUSH1 0x40 MSTORE CALLVALUE DUP1 ISZERO PUSH2 0xF JUMPI PUSH0 PUSH0 REVERT JUMPDEST POP PUSH1 0x4 CALLDATASIZE LT PUSH2 0x34 JUMPI PUSH0 CALLDATALOAD PUSH1 0xE0 SHR DUP1 PUSH4 0xA35F8A40 EQ PUSH2 0x38 JUMPI DUP1 PUSH4 0xFA540801 EQ PUSH2 0x68 JUMPI JUMPDEST PUSH0 PUSH0 REVERT JUMPDEST PUSH2 0x52 PUSH1 0x4 DUP1 CALLDATASIZE SUB DUP2 ADD SWAP1 PUSH2 0x4D SWAP2 SWAP1 PUSH2 0x2D9 JUMP JUMPDEST PUSH2 0x98 JUMP JUMPDEST PUSH1 0x40 MLOAD PUSH2 0x5F SWAP2 SWAP1 PUSH2 0x371 JUMP JUMPDEST PUSH1 0x40 MLOAD DUP1 SWAP2 SUB SWAP1 RETURN JUMPDEST PUSH2 0x82 PUSH1 0x4 DUP1 CALLDATASIZE SUB DUP2 ADD SWAP1 PUSH2 0x7D SWAP2 SWAP1 PUSH2 0x3B4 JUMP JUMPDEST PUSH2 0xD0 JUMP JUMPDEST PUSH1 0x40 MLOAD PUSH2 0x8F SWAP2 SWAP1 PUSH2 0x371 JUMP JUMPDEST PUSH1 0x40 MLOAD DUP1 SWAP2 SUB SWAP1 RETURN JUMPDEST PUSH0 DUP5 DUP5 DUP5 DUP5 PUSH1 0x40 MLOAD PUSH1 0x20 ADD PUSH2 0xB0 SWAP5 SWAP4 SWAP3 SWAP2 SWAP1 PUSH2 0x496 JUMP JUMPDEST PUSH1 0x40 MLOAD PUSH1 0x20 DUP2 DUP4 SUB SUB DUP2 MSTORE SWAP1 PUSH1 0x40 MSTORE DUP1 MLOAD SWAP1 PUSH1 0x20 ADD KECCAK256 SWAP1 POP SWAP5 SWAP4 POP POP POP POP JUMP JUMPDEST PUSH0 DUP2 PUSH1 0x40 MLOAD PUSH1 0x20 ADD PUSH2 0xE2 SWAP2 SWAP1 PUSH2 0x549 JUMP JUMPDEST PUSH1 0x40 MLOAD PUSH1 0x20 DUP2 DUP4 SUB SUB DUP2 MSTORE SWAP1 PUSH1 0x40 MSTORE DUP1 MLOAD SWAP1 PUSH1 0x20 ADD KECCAK256 SWAP1 POP SWAP2 SWAP1 POP JUMP JUMPDEST PUSH0 PUSH1 0x40 MLOAD SWAP1 POP SWAP1 JUMP JUMPDEST PUSH0 PUSH0 REVERT JUMPDEST PUSH0 PUSH0 REVERT JUMPDEST PUSH0 PUSH20 0xFFFFFFFFFFFFFFFFFFFFFFFFFFFFFFFFFFFFFFFF DUP3 AND SWAP1 POP SWAP2 SWAP1 POP JUMP JUMPDEST PUSH0 PUSH2 0x139 DUP3 PUSH2 0x110 JUMP JUMPDEST SWAP1 POP SWAP2 SWAP1 POP JUMP JUMPDEST PUSH2 0x149 DUP2 PUSH2 0x12F JUMP JUMPDEST DUP2 EQ PUSH2 0x153 JUMPI PUSH0 PUSH0 REVERT JUMPDEST POP JUMP JUMPDEST PUSH0 DUP2 CALLDATALOAD SWAP1 POP PUSH2 0x164 DUP2 PUSH2 0x140 JUMP JUMPDEST SWAP3 SWAP2 POP POP JUMP JUMPDEST PUSH0 DUP2 SWAP1 POP SWAP2 SWAP1 POP JUMP JUMPDEST PUSH2 0x17C DUP2 PUSH2 0x16A JUMP JUMPDEST DUP2 EQ PUSH2 0x186 JUMPI PUSH0 PUSH0 REVERT JUMPDEST POP JUMP JUMPDEST PUSH0 DUP2 CALLDATALOAD SWAP1 POP PUSH2 0x197 DUP2 PUSH2 0x173 JUMP JUMPDEST SWAP3 SWAP2 POP POP JUMP JUMPDEST PUSH0 PUSH0 REVERT JUMPDEST PUSH0 PUSH0 REVERT JUMPDEST PUSH0 PUSH1 0x1F NOT PUSH1 0x1F DUP4 ADD AND SWAP1 POP SWAP2 SWAP1 POP JUMP JUMPDEST PUSH32 0x4E487B7100000000000000000000000000000000000000000000000000000000 PUSH0 MSTORE PUSH1 0x41 PUSH1 0x4 MSTORE PUSH1 0x24 PUSH0 REVERT JUMPDEST PUSH2 0x1EB DUP3 PUSH2 0x1A5 JUMP JUMPDEST DUP2 ADD DUP2 DUP2 LT PUSH8 0xFFFFFFFFFFFFFFFF DUP3 GT OR ISZERO PUSH2 0x20A JUMPI PUSH2 0x209 PUSH2 0x1B5 JUMP JUMPDEST JUMPDEST DUP1 PUSH1 0x40 MSTORE POP POP POP JUMP JUMPDEST PUSH0 PUSH2 0x21C PUSH2 0xFF JUMP JUMPDEST SWAP1 POP PUSH2 0x228 DUP3 DUP3 PUSH2 0x1E2 JUMP JUMPDEST SWAP2 SWAP1 POP JUMP JUMPDEST PUSH0 PUSH8 0xFFFFFFFFFFFFFFFF DUP3 GT ISZERO PUSH2 0x247 JUMPI PUSH2 0x246 PUSH2 0x1B5 JUMP JUMPDEST JUMPDEST PUSH2 0x250 DUP3 PUSH2 0x1A5 JUMP JUMPDEST SWAP1 POP PUSH1 0x20 DUP2 ADD SWAP1 POP SWAP2 SWAP1 POP JUMP JUMPDEST DUP3 DUP2 DUP4 CALLDATACOPY PUSH0 DUP4 DUP4 ADD MSTORE POP POP POP JUMP JUMPDEST PUSH0 PUSH2 0x27D PUSH2 0x278 DUP5 PUSH2 0x22D JUMP JUMPDEST PUSH2 0x213 JUMP JUMPDEST SWAP1 POP DUP3 DUP2 MSTORE PUSH1 0x20 DUP2 ADD DUP5 DUP5 DUP5 ADD GT ISZERO PUSH2 0x299 JUMPI PUSH2 0x298 PUSH2 0x1A1 JUMP JUMPDEST JUMPDEST PUSH2 0x2A4 DUP5 DUP3 DUP6 PUSH2 0x25D JUMP JUMPDEST POP SWAP4 SWAP3 POP POP POP JUMP JUMPDEST PUSH0 DUP3 PUSH1 0x1F DUP4 ADD SLT PUSH2 0x2C0 JUMPI PUSH2 0x2BF PUSH2 0x19D JUMP JUMPDEST JUMPDEST DUP2 CALLDATALOAD PUSH2 0x2D0 DUP5 DUP3 PUSH1 0x20 DUP7 ADD PUSH2 0x26B JUMP JUMPDEST SWAP2 POP POP SWAP3 SWAP2 POP POP JUMP JUMPDEST PUSH0 PUSH0 PUSH0 PUSH0 PUSH1 0x80 DUP6 DUP8 SUB SLT ISZERO PUSH2 0x2F1 JUMPI PUSH2 0x2F0 PUSH2 0x108 JUMP JUMPDEST JUMPDEST PUSH0 PUSH2 0x2FE DUP8 DUP3 DUP9 ADD PUSH2 0x156 JUMP JUMPDEST SWAP5 POP POP PUSH1 0x20 PUSH2 0x30F DUP8 DUP3 DUP9 ADD PUSH2 0x189 JUMP JUMPDEST SWAP4 POP POP PUSH1 0x40 DUP6 ADD CALLDATALOAD PUSH8 0xFFFFFFFFFFFFFFFF DUP2 GT ISZERO PUSH2 0x330 JUMPI PUSH2 0x32F PUSH2 0x10C JUMP JUMPDEST JUMPDEST PUSH2 0x33C DUP8 DUP3 DUP9 ADD PUSH2 0x2AC JUMP JUMPDEST SWAP3 POP POP PUSH1 0x60 PUSH2 0x34D DUP8 DUP3 DUP9 ADD PUSH2 0x189 JUMP JUMPDEST SWAP2 POP POP SWAP3 SWAP6 SWAP2 SWAP5 POP SWAP3 POP JUMP JUMPDEST PUSH0 DUP2 SWAP1 POP SWAP2 SWAP1 POP JUMP JUMPDEST PUSH2 0x36B DUP2 PUSH2 0x359 JUMP JUMPDEST DUP3 MSTORE POP POP JUMP JUMPDEST PUSH0 PUSH1 0x20 DUP3 ADD SWAP1 POP PUSH2 0x384 PUSH0 DUP4 ADD DUP5 PUSH2 0x362 JUMP JUMPDEST SWAP3 SWAP2 POP POP JUMP JUMPDEST PUSH2 0x393 DUP2 PUSH2 0x359 JUMP JUMPDEST DUP2 EQ PUSH2 0x39D JUMPI PUSH0 PUSH0 REVERT JUMPDEST POP JUMP JUMPDEST PUSH0 DUP2 CALLDATALOAD SWAP1 POP PUSH2 0x3AE DUP2 PUSH2 0x38A JUMP JUMPDEST SWAP3 SWAP2 POP POP JUMP JUMPDEST PUSH0 PUSH1 0x20 DUP3 DUP5 SUB SLT ISZERO PUSH2 0x3C9 JUMPI PUSH2 0x3C8 PUSH2 0x108 JUMP JUMPDEST JUMPDEST PUSH0 PUSH2 0x3D6 DUP5 DUP3 DUP6 ADD PUSH2 0x3A0 JUMP JUMPDEST SWAP2 POP POP SWAP3 SWAP2 POP POP JUMP JUMPDEST PUSH0 DUP2 PUSH1 0x60 SHL SWAP1 POP SWAP2 SWAP1 POP JUMP JUMPDEST PUSH0 PUSH2 0x3F5 DUP3 PUSH2 0x3DF JUMP JUMPDEST SWAP1 POP SWAP2 SWAP1 POP JUMP JUMPDEST PUSH0 PUSH2 0x406 DUP3 PUSH2 0x3EB JUMP JUMPDEST SWAP1 POP SWAP2 SWAP1 POP JUMP JUMPDEST PUSH2 0x41E PUSH2 0x419 DUP3 PUSH2 0x12F JUMP JUMPDEST PUSH2 0x3FC JUMP JUMPDEST DUP3 MSTORE POP POP JUMP JUMPDEST PUSH0 DUP2 SWAP1 POP SWAP2 SWAP1 POP JUMP JUMPDEST PUSH2 0x43E PUSH2 0x439 DUP3 PUSH2 0x16A JUMP JUMPDEST PUSH2 0x424 JUMP JUMPDEST DUP3 MSTORE POP POP JUMP JUMPDEST PUSH0 DUP2 MLOAD SWAP1 POP SWAP2 SWAP1 POP JUMP JUMPDEST PUSH0 DUP2 SWAP1 POP SWAP3 SWAP2 POP POP JUMP JUMPDEST DUP3 DUP2 DUP4 MCOPY PUSH0 DUP4 DUP4 ADD MSTORE POP POP POP JUMP JUMPDEST PUSH0 PUSH2 0x470 DUP3 PUSH2 0x444 JUMP JUMPDEST PUSH2 0x47A DUP2 DUP6 PUSH2 0x44E JUMP JUMPDEST SWAP4 POP PUSH2 0x48A DUP2 DUP6 PUSH1 0x20 DUP7 ADD PUSH2 0x458 JUMP JUMPDEST DUP1 DUP5 ADD SWAP2 POP POP SWAP3 SWAP2 POP POP JUMP JUMPDEST PUSH0 PUSH2 0x4A1 DUP3 DUP8 PUSH2 0x40D JUMP JUMPDEST PUSH1 0x14 DUP3 ADD SWAP2 POP PUSH2 0x4B1 DUP3 DUP7 PUSH2 0x42D JUMP JUMPDEST PUSH1 0x20 DUP3 ADD SWAP2 POP PUSH2 0x4C1 DUP3 DUP6 PUSH2 0x466 JUMP JUMPDEST SWAP2 POP PUSH2 0x4CD DUP3 DUP5 PUSH2 0x42D JUMP JUMPDEST PUSH1 0x20 DUP3 ADD SWAP2 POP DUP2 SWAP1 POP SWAP6 SWAP5 POP POP POP POP POP JUMP JUMPDEST PUSH32 0x19457468657265756D205369676E6564204D6573736167653A0A333200000000 PUSH0 DUP3 ADD MSTORE POP JUMP JUMPDEST PUSH0 PUSH2 0x513 PUSH1 0x1C DUP4 PUSH2 0x44E JUMP JUMPDEST SWAP2 POP PUSH2 0x51E DUP3 PUSH2 0x4DF JUMP JUMPDEST PUSH1 0x1C DUP3 ADD SWAP1 POP SWAP2 SWAP1 POP JUMP JUMPDEST PUSH0 DUP2 SWAP1 POP SWAP2 SWAP1 POP JUMP JUMPDEST PUSH2 0x543 PUSH2 0x53E DUP3 PUSH2 0x359 JUMP JUMPDEST PUSH2 0x529 JUMP JUMPDEST DUP3 MSTORE POP POP JUMP JUMPDEST PUSH0 PUSH2 0x553 DUP3 PUSH2 0x507 JUMP JUMPDEST SWAP2 POP PUSH2 0x55F DUP3 DUP5 PUSH2 0x532 JUMP JUMPDEST PUSH1 0x20 DUP3 ADD SWAP2 POP DUP2 SWAP1 POP SWAP3 SWAP2 POP POP JUMP INVALID LOG2 PUSH5 0x6970667358 0x22 SLT KECCAK256 BASEFEE DUP16 SLOAD GASLIMIT SWAPN 0x6F 0xB7 DUP16 RETURNDATASIZE PUSH4 0x3D6A8A60 0x2B MUL GT SUB SHR PUSH20 0xDDD028630493939C0F6C35C864736F6C63430008 0x1E STOP CALLER "
				},
				"gasEstimates": {
					"creation": {
						"codeDepositCost": "288800",
						"executionCost": "329",
						"totalCost": "289129"
					},
					"external": {
						"getEthSignedMessageHash(bytes32)": "infinite",
						"getMessageHash(address,uint256,string,uint256)": "infinite"
					}
				},
				"methodIdentifiers": {
					"getEthSignedMessageHash(bytes32)": "fa540801",
					"getMessageHash(address,uint256,string,uint256)": "a35f8a40"
				}
			},
			"storageLayout": {
				"storage": [],
				"types": null
			},
			"userdoc": {
				"kind": "user",
				"methods": {},
				"version": 1
			}
		}
	}
}