{
	"contracts/AssemblyVariable.sol": {
		"AssemblyVariable": {
			"abi": [
				{
					"inputs": [],
					"name": "yul_for_loop",
					"outputs": [
						{
							"internalType": "uint256",
							"name": "z",
							"type": "uint256"
						}
					],
					"stateMutability": "pure",
					"type": "function"
				},
				{
					"inputs": [],
					"name": "yul_let",
					"outputs": [
						{
							"internalType": "uint256",
							"name": "z",
							"type": "uint256"
						}
					],
					"stateMutability": "pure",
					"type": "function"
				},
				{
					"inputs": [
						{
							"internalType": "uint256",
							"name": "x",
							"type": "uint256"
						}
					],
					"name": "yul_switch",
					"outputs": [
						{
							"internalType": "uint256",
							"name": "z",
							"type": "uint256"
						}
					],
					"stateMutability": "pure",
					"type": "function"
				},
				{
					"inputs": [],
					"name": "yul_while_loop",
					"outputs": [
						{
							"internalType": "uint256",
							"name": "z",
							"type": "uint256"
						}
					],
					"stateMutability": "pure",
					"type": "function"
				}
			],
			"devdoc": {
				"kind": "dev",
				"methods": {},
				"version": 1
			},
			"evm": {
				"assembly": "    /* \"contracts/AssemblyVariable.sol\":58:843  contract AssemblyVariable{... */\n  mstore(0x40, 0x80)\n  callvalue\n  dup1\n  iszero\n  tag_1\n  jumpi\n  revert(0x00, 0x00)\ntag_1:\n  pop\n  dataSize(sub_0)\n  dup1\n  dataOffset(sub_0)\n  0x00\n  codecopy\n  0x00\n  return\nstop\n\nsub_0: assembly {\n        /* \"contracts/AssemblyVariable.sol\":58:843  contract AssemblyVariable{... */\n      mstore(0x40, 0x80)\n      callvalue\n      dup1\n      iszero\n      tag_1\n      jumpi\n      revert(0x00, 0x00)\n    tag_1:\n      pop\n      jumpi(tag_2, lt(calldatasize, 0x04))\n      shr(0xe0, calldataload(0x00))\n      dup1\n      0xa917238b\n      eq\n      tag_3\n      jumpi\n      dup1\n      0xd22b5850\n      eq\n      tag_4\n      jumpi\n      dup1\n      0xfa0de168\n      eq\n      tag_5\n      jumpi\n      dup1\n      0xfd4a8ebb\n      eq\n      tag_6\n      jumpi\n    tag_2:\n      revert(0x00, 0x00)\n        /* \"contracts/AssemblyVariable.sol\":243:449  function yul_switch(uint256 x) public pure returns(uint256 z){... */\n    tag_3:\n      tag_7\n      0x04\n      dup1\n      calldatasize\n      sub\n      dup2\n      add\n      swap1\n      tag_8\n      swap2\n      swap1\n      tag_9\n      jump\t// in\n    tag_8:\n      tag_10\n      jump\t// in\n    tag_7:\n      mload(0x40)\n      tag_11\n      swap2\n      swap1\n      tag_12\n      jump\t// in\n    tag_11:\n      mload(0x40)\n      dup1\n      swap2\n      sub\n      swap1\n      return\n        /* \"contracts/AssemblyVariable.sol\":455:614  function yul_for_loop()public pure returns (uint256 z){... */\n    tag_4:\n      tag_13\n      tag_14\n      jump\t// in\n    tag_13:\n      mload(0x40)\n      tag_15\n      swap2\n      swap1\n      tag_12\n      jump\t// in\n    tag_15:\n      mload(0x40)\n      dup1\n      swap2\n      sub\n      swap1\n      return\n        /* \"contracts/AssemblyVariable.sol\":89:237  function yul_let()public  pure returns(uint256 z){... */\n    tag_5:\n      tag_16\n      tag_17\n      jump\t// in\n    tag_16:\n      mload(0x40)\n      tag_18\n      swap2\n      swap1\n      tag_12\n      jump\t// in\n    tag_18:\n      mload(0x40)\n      dup1\n      swap2\n      sub\n      swap1\n      return\n        /* \"contracts/AssemblyVariable.sol\":620:841  function yul_while_loop()public  pure returns (uint256 z){... */\n    tag_6:\n      tag_19\n      tag_20\n      jump\t// in\n    tag_19:\n      mload(0x40)\n      tag_21\n      swap2\n      swap1\n      tag_12\n      jump\t// in\n    tag_21:\n      mload(0x40)\n      dup1\n      swap2\n      sub\n      swap1\n      return\n        /* \"contracts/AssemblyVariable.sol\":243:449  function yul_switch(uint256 x) public pure returns(uint256 z){... */\n    tag_10:\n        /* \"contracts/AssemblyVariable.sol\":294:303  uint256 z */\n      0x00\n        /* \"contracts/AssemblyVariable.sol\":343:344  x */\n      dup2\n        /* \"contracts/AssemblyVariable.sol\":362:363  1 */\n      0x01\n        /* \"contracts/AssemblyVariable.sol\":357:373  case 1 {z := 10} */\n      dup2\n      eq\n      tag_24\n      jumpi\n        /* \"contracts/AssemblyVariable.sol\":391:392  2 */\n      0x02\n        /* \"contracts/AssemblyVariable.sol\":386:402  case 2 {z := 20} */\n      dup2\n      eq\n      tag_25\n      jumpi\n        /* \"contracts/AssemblyVariable.sol\":431:432  0 */\n      0x00\n        /* \"contracts/AssemblyVariable.sol\":426:432  z := 0 */\n      swap2\n      pop\n        /* \"contracts/AssemblyVariable.sol\":336:433  switch x... */\n      jump(tag_23)\n        /* \"contracts/AssemblyVariable.sol\":357:373  case 1 {z := 10} */\n    tag_24:\n        /* \"contracts/AssemblyVariable.sol\":370:372  10 */\n      0x0a\n        /* \"contracts/AssemblyVariable.sol\":365:372  z := 10 */\n      swap2\n      pop\n        /* \"contracts/AssemblyVariable.sol\":357:373  case 1 {z := 10} */\n      jump(tag_23)\n        /* \"contracts/AssemblyVariable.sol\":386:402  case 2 {z := 20} */\n    tag_25:\n        /* \"contracts/AssemblyVariable.sol\":399:401  20 */\n      0x14\n        /* \"contracts/AssemblyVariable.sol\":394:401  z := 20 */\n      swap2\n      pop\n        /* \"contracts/AssemblyVariable.sol\":336:433  switch x... */\n    tag_23:\n      pop\n        /* \"contracts/AssemblyVariable.sol\":243:449  function yul_switch(uint256 x) public pure returns(uint256 z){... */\n      swap2\n      swap1\n      pop\n      jump\t// out\n        /* \"contracts/AssemblyVariable.sol\":455:614  function yul_for_loop()public pure returns (uint256 z){... */\n    tag_14:\n        /* \"contracts/AssemblyVariable.sol\":499:508  uint256 z */\n      0x00\n        /* \"contracts/AssemblyVariable.sol\":554:555  0 */\n      0x00\n        /* \"contracts/AssemblyVariable.sol\":541:598  for{let i := 0} lt(i, 10){i := add(i, 1)}{z := add(z, 1)} */\n    tag_27:\n        /* \"contracts/AssemblyVariable.sol\":563:565  10 */\n      0x0a\n        /* \"contracts/AssemblyVariable.sol\":560:561  i */\n      dup2\n        /* \"contracts/AssemblyVariable.sol\":557:566  lt(i, 10) */\n      lt\n        /* \"contracts/AssemblyVariable.sol\":541:598  for{let i := 0} lt(i, 10){i := add(i, 1)}{z := add(z, 1)} */\n      iszero\n      tag_29\n      jumpi\n        /* \"contracts/AssemblyVariable.sol\":595:596  1 */\n      0x01\n        /* \"contracts/AssemblyVariable.sol\":592:593  z */\n      dup3\n        /* \"contracts/AssemblyVariable.sol\":588:597  add(z, 1) */\n      add\n        /* \"contracts/AssemblyVariable.sol\":583:597  z := add(z, 1) */\n      swap2\n      pop\n        /* \"contracts/AssemblyVariable.sol\":579:580  1 */\n      0x01\n        /* \"contracts/AssemblyVariable.sol\":576:577  i */\n      dup2\n        /* \"contracts/AssemblyVariable.sol\":572:581  add(i, 1) */\n      add\n        /* \"contracts/AssemblyVariable.sol\":567:581  i := add(i, 1) */\n      swap1\n      pop\n        /* \"contracts/AssemblyVariable.sol\":541:598  for{let i := 0} lt(i, 10){i := add(i, 1)}{z := add(z, 1)} */\n      jump(tag_27)\n    tag_29:\n        /* \"contracts/AssemblyVariable.sol\":544:556  {let i := 0} */\n      pop\n        /* \"contracts/AssemblyVariable.sol\":455:614  function yul_for_loop()public pure returns (uint256 z){... */\n      swap1\n      jump\t// out\n        /* \"contracts/AssemblyVariable.sol\":89:237  function yul_let()public  pure returns(uint256 z){... */\n    tag_17:\n        /* \"contracts/AssemblyVariable.sol\":128:137  uint256 z */\n      0x00\n        /* \"contracts/AssemblyVariable.sol\":179:181  10 */\n      0x0a\n        /* \"contracts/AssemblyVariable.sol\":176:177  z */\n      dup2\n        /* \"contracts/AssemblyVariable.sol\":173:182  lt(z, 10) */\n      lt\n        /* \"contracts/AssemblyVariable.sol\":170:221  if lt(z, 10) {... */\n      iszero\n      tag_31\n      jumpi\n        /* \"contracts/AssemblyVariable.sol\":205:207  99 */\n      0x63\n        /* \"contracts/AssemblyVariable.sol\":201:207  z:= 99 */\n      swap1\n      pop\n        /* \"contracts/AssemblyVariable.sol\":170:221  if lt(z, 10) {... */\n    tag_31:\n        /* \"contracts/AssemblyVariable.sol\":89:237  function yul_let()public  pure returns(uint256 z){... */\n      swap1\n      jump\t// out\n        /* \"contracts/AssemblyVariable.sol\":620:841  function yul_while_loop()public  pure returns (uint256 z){... */\n    tag_20:\n        /* \"contracts/AssemblyVariable.sol\":667:676  uint256 z */\n      0x00\n        /* \"contracts/AssemblyVariable.sol\":718:719  0 */\n      0x00\n        /* \"contracts/AssemblyVariable.sol\":732:825  for{} lt(i, 5){}{... */\n    tag_33:\n        /* \"contracts/AssemblyVariable.sol\":744:745  5 */\n      0x05\n        /* \"contracts/AssemblyVariable.sol\":741:742  i */\n      dup2\n        /* \"contracts/AssemblyVariable.sol\":738:746  lt(i, 5) */\n      lt\n        /* \"contracts/AssemblyVariable.sol\":732:825  for{} lt(i, 5){}{... */\n      iszero\n      tag_35\n      jumpi\n        /* \"contracts/AssemblyVariable.sol\":778:779  1 */\n      0x01\n        /* \"contracts/AssemblyVariable.sol\":775:776  i */\n      dup2\n        /* \"contracts/AssemblyVariable.sol\":771:780  add(i, 1) */\n      add\n        /* \"contracts/AssemblyVariable.sol\":766:780  i := add(i, 1) */\n      swap1\n      pop\n        /* \"contracts/AssemblyVariable.sol\":809:810  1 */\n      0x01\n        /* \"contracts/AssemblyVariable.sol\":806:807  z */\n      dup3\n        /* \"contracts/AssemblyVariable.sol\":802:811  add(z, 1) */\n      add\n        /* \"contracts/AssemblyVariable.sol\":797:811  z := add(z, 1) */\n      swap2\n      pop\n        /* \"contracts/AssemblyVariable.sol\":732:825  for{} lt(i, 5){}{... */\n      jump(tag_33)\n    tag_35:\n        /* \"contracts/AssemblyVariable.sol\":695:835  {... */\n      pop\n        /* \"contracts/AssemblyVariable.sol\":620:841  function yul_while_loop()public  pure returns (uint256 z){... */\n      swap1\n      jump\t// out\n        /* \"#utility.yul\":88:205   */\n    tag_37:\n        /* \"#utility.yul\":197:198   */\n      0x00\n        /* \"#utility.yul\":194:195   */\n      0x00\n        /* \"#utility.yul\":187:199   */\n      revert\n        /* \"#utility.yul\":334:411   */\n    tag_39:\n        /* \"#utility.yul\":371:378   */\n      0x00\n        /* \"#utility.yul\":400:405   */\n      dup2\n        /* \"#utility.yul\":389:405   */\n      swap1\n      pop\n        /* \"#utility.yul\":334:411   */\n      swap2\n      swap1\n      pop\n      jump\t// out\n        /* \"#utility.yul\":417:539   */\n    tag_40:\n        /* \"#utility.yul\":490:514   */\n      tag_49\n        /* \"#utility.yul\":508:513   */\n      dup2\n        /* \"#utility.yul\":490:514   */\n      tag_39\n      jump\t// in\n    tag_49:\n        /* \"#utility.yul\":483:488   */\n      dup2\n        /* \"#utility.yul\":480:515   */\n      eq\n        /* \"#utility.yul\":470:533   */\n      tag_50\n      jumpi\n        /* \"#utility.yul\":529:530   */\n      0x00\n        /* \"#utility.yul\":526:527   */\n      0x00\n        /* \"#utility.yul\":519:531   */\n      revert\n        /* \"#utility.yul\":470:533   */\n    tag_50:\n        /* \"#utility.yul\":417:539   */\n      pop\n      jump\t// out\n        /* \"#utility.yul\":545:684   */\n    tag_41:\n        /* \"#utility.yul\":591:596   */\n      0x00\n        /* \"#utility.yul\":629:635   */\n      dup2\n        /* \"#utility.yul\":616:636   */\n      calldataload\n        /* \"#utility.yul\":607:636   */\n      swap1\n      pop\n        /* \"#utility.yul\":645:678   */\n      tag_52\n        /* \"#utility.yul\":672:677   */\n      dup2\n        /* \"#utility.yul\":645:678   */\n      tag_40\n      jump\t// in\n    tag_52:\n        /* \"#utility.yul\":545:684   */\n      swap3\n      swap2\n      pop\n      pop\n      jump\t// out\n        /* \"#utility.yul\":690:1019   */\n    tag_9:\n        /* \"#utility.yul\":749:755   */\n      0x00\n        /* \"#utility.yul\":798:800   */\n      0x20\n        /* \"#utility.yul\":786:795   */\n      dup3\n        /* \"#utility.yul\":777:784   */\n      dup5\n        /* \"#utility.yul\":773:796   */\n      sub\n        /* \"#utility.yul\":769:801   */\n      slt\n        /* \"#utility.yul\":766:885   */\n      iszero\n      tag_54\n      jumpi\n        /* \"#utility.yul\":804:883   */\n      tag_55\n      tag_37\n      jump\t// in\n    tag_55:\n        /* \"#utility.yul\":766:885   */\n    tag_54:\n        /* \"#utility.yul\":924:925   */\n      0x00\n        /* \"#utility.yul\":949:1002   */\n      tag_56\n        /* \"#utility.yul\":994:1001   */\n      dup5\n        /* \"#utility.yul\":985:991   */\n      dup3\n        /* \"#utility.yul\":974:983   */\n      dup6\n        /* \"#utility.yul\":970:992   */\n      add\n        /* \"#utility.yul\":949:1002   */\n      tag_41\n      jump\t// in\n    tag_56:\n        /* \"#utility.yul\":939:1002   */\n      swap2\n      pop\n        /* \"#utility.yul\":895:1012   */\n      pop\n        /* \"#utility.yul\":690:1019   */\n      swap3\n      swap2\n      pop\n      pop\n      jump\t// out\n        /* \"#utility.yul\":1025:1143   */\n    tag_42:\n        /* \"#utility.yul\":1112:1136   */\n      tag_58\n        /* \"#utility.yul\":1130:1135   */\n      dup2\n        /* \"#utility.yul\":1112:1136   */\n      tag_39\n      jump\t// in\n    tag_58:\n        /* \"#utility.yul\":1107:1110   */\n      dup3\n        /* \"#utility.yul\":1100:1137   */\n      mstore\n        /* \"#utility.yul\":1025:1143   */\n      pop\n      pop\n      jump\t// out\n        /* \"#utility.yul\":1149:1371   */\n    tag_12:\n        /* \"#utility.yul\":1242:1246   */\n      0x00\n        /* \"#utility.yul\":1280:1282   */\n      0x20\n        /* \"#utility.yul\":1269:1278   */\n      dup3\n        /* \"#utility.yul\":1265:1283   */\n      add\n        /* \"#utility.yul\":1257:1283   */\n      swap1\n      pop\n        /* \"#utility.yul\":1293:1364   */\n      tag_60\n        /* \"#utility.yul\":1361:1362   */\n      0x00\n        /* \"#utility.yul\":1350:1359   */\n      dup4\n        /* \"#utility.yul\":1346:1363   */\n      add\n        /* \"#utility.yul\":1337:1343   */\n      dup5\n        /* \"#utility.yul\":1293:1364   */\n      tag_42\n      jump\t// in\n    tag_60:\n        /* \"#utility.yul\":1149:1371   */\n      swap3\n      swap2\n      pop\n      pop\n      jump\t// out\n\n    auxdata: 0xa2646970667358221220a0ffb08f1455aa9b3e8264af8cd5dc9c0e74f33c84fb8fff3390c1287178564564736f6c634300081e0033\n}\n",
				"bytecode": {
					"linkReferences": {},
					"object": "6080604052348015600e575f5ffd5b5061021a8061001c5f395ff3fe608060405234801561000f575f5ffd5b506004361061004a575f3560e01c8063a917238b1461004e578063d22b58501461007e578063fa0de1681461009c578063fd4a8ebb146100ba575b5f5ffd5b61006860048036038101906100639190610191565b6100d8565b60405161007591906101cb565b60405180910390f35b610086610106565b60405161009391906101cb565b60405180910390f35b6100a4610127565b6040516100b191906101cb565b60405180910390f35b6100c2610139565b6040516100cf91906101cb565b60405180910390f35b5f81600181146100f257600281146100fb575f9150610100565b600a9150610100565b601491505b50919050565b5f5f5b600a81101561012357600182019150600181019050610109565b5090565b5f600a81101561013657606390505b90565b5f5f5b60058110156101565760018101905060018201915061013c565b5090565b5f5ffd5b5f819050919050565b6101708161015e565b811461017a575f5ffd5b50565b5f8135905061018b81610167565b92915050565b5f602082840312156101a6576101a561015a565b5b5f6101b38482850161017d565b91505092915050565b6101c58161015e565b82525050565b5f6020820190506101de5f8301846101bc565b9291505056fea2646970667358221220a0ffb08f1455aa9b3e8264af8cd5dc9c0e74f33c84fb8fff3390c1287178564564736f6c634300081e0033",
					"opcodes": "PUSH1 0x80 PUSH1 0x40 MSTORE CALLVALUE DUP1 ISZERO PUSH1 0xE JUMPI PUSH0 PUSH0 REVERT JUMPDEST POP PUSH2 0x21A DUP1 PUSH2 0x1C PUSH0 CODECOPY PUSH0 RETURN INVALID PUSH1 0x80 PUSH1 0x40 MSTORE CALLVALUE DUP1 ISZERO PUSH2 0xF JUMPI PUSH0 PUSH0 REVERT JUMPDEST POP PUSH1 0x4 CALLDATASIZE LT PUSH2 0x4A JUMPI PUSH0 CALLDATALOAD PUSH1 0xE0 SHR DUP1 PUSH4 0xA917238B EQ PUSH2 0x4E JUMPI DUP1 PUSH4 0xD22B5850 EQ PUSH2 0x7E JUMPI DUP1 PUSH4 0xFA0DE168 EQ PUSH2 0x9C JUMPI DUP1 PUSH4 0xFD4A8EBB EQ PUSH2 0xBA JUMPI JUMPDEST PUSH0 PUSH0 REVERT JUMPDEST PUSH2 0x68 PUSH1 0x4 DUP1 CALLDATASIZE SUB DUP2 ADD SWAP1 PUSH2 0x63 SWAP2 SWAP1 PUSH2 0x191 JUMP JUMPDEST PUSH2 0xD8 JUMP JUMPDEST PUSH1 0x40 MLOAD PUSH2 0x75 SWAP2 SWAP1 PUSH2 0x1CB JUMP JUMPDEST PUSH1 0x40 MLOAD DUP1 SWAP2 SUB SWAP1 RETURN JUMPDEST PUSH2 0x86 PUSH2 0x106 JUMP JUMPDEST PUSH1 0x40 MLOAD PUSH2 0x93 SWAP2 SWAP1 PUSH2 0x1CB JUMP JUMPDEST PUSH1 0x40 MLOAD DUP1 SWAP2 SUB SWAP1 RETURN JUMPDEST PUSH2 0xA4 PUSH2 0x127 JUMP JUMPDEST PUSH1 0x40 MLOAD PUSH2 0xB1 SWAP2 SWAP1 PUSH2 0x1CB JUMP JUMPDEST PUSH1 0x40 MLOAD DUP1 SWAP2 SUB SWAP1 RETURN JUMPDEST PUSH2 0xC2 PUSH2 0x139 JUMP JUMPDEST PUSH1 0x40 MLOAD PUSH2 0xCF SWAP2 SWAP1 PUSH2 0x1CB JUMP JUMPDEST PUSH1 0x40 MLOAD DUP1 SWAP2 SUB SWAP1 RETURN JUMPDEST PUSH0 DUP2 PUSH1 0x1 DUP2 EQ PUSH2 0xF2 JUMPI PUSH1 0x2 DUP2 EQ PUSH2 0xFB JUMPI PUSH0 SWAP2 POP PUSH2 0x100 JUMP JUMPDEST PUSH1 0xA SWAP2 POP PUSH2 0x100 JUMP JUMPDEST PUSH1 0x14 SWAP2 POP JUMPDEST POP SWAP2 SWAP1 POP JUMP JUMPDEST PUSH0 PUSH0 JUMPDEST PUSH1 0xA DUP2 LT ISZERO PUSH2 0x123 JUMPI PUSH1 0x1 DUP3 ADD SWAP2 POP PUSH1 0x1 DUP2 ADD SWAP1 POP PUSH2 0x109 JUMP JUMPDEST POP SWAP1 JUMP JUMPDEST PUSH0 PUSH1 0xA DUP2 LT ISZERO PUSH2 0x136 JUMPI PUSH1 0x63 SWAP1 POP JUMPDEST SWAP1 JUMP JUMPDEST PUSH0 PUSH0 JUMPDEST PUSH1 0x5 DUP2 LT ISZERO PUSH2 0x156 JUMPI PUSH1 0x1 DUP2 ADD SWAP1 POP PUSH1 0x1 DUP3 ADD SWAP2 POP PUSH2 0x13C JUMP JUMPDEST POP SWAP1 JUMP JUMPDEST PUSH0 PUSH0 REVERT JUMPDEST PUSH0 DUP2 SWAP1 POP SWAP2 SWAP1 POP JUMP JUMPDEST PUSH2 0x170 DUP2 PUSH2 0x15E JUMP JUMPDEST DUP2 EQ PUSH2 0x17A JUMPI PUSH0 PUSH0 REVERT JUMPDEST POP JUMP JUMPDEST PUSH0 DUP2 CALLDATALOAD SWAP1 POP PUSH2 0x18B DUP2 PUSH2 0x167 JUMP JUMPDEST SWAP3 SWAP2 POP POP JUMP JUMPDEST PUSH0 PUSH1 0x20 DUP3 DUP5 SUB SLT ISZERO PUSH2 0x1A6 JUMPI PUSH2 0x1A5 PUSH2 0x15A JUMP JUMPDEST JUMPDEST PUSH0 PUSH2 0x1B3 DUP5 DUP3 DUP6 ADD PUSH2 0x17D JUMP JUMPDEST SWAP2 POP POP SWAP3 SWAP2 POP POP JUMP JUMPDEST PUSH2 0x1C5 DUP2 PUSH2 0x15E JUMP JUMPDEST DUP3 MSTORE POP POP JUMP JUMPDEST PUSH0 PUSH1 0x20 DUP3 ADD SWAP1 POP PUSH2 0x1DE PUSH0 DUP4 ADD DUP5 PUSH2 0x1BC JUMP JUMPDEST SWAP3 SWAP2 POP POP JUMP INVALID LOG2 PUSH5 0x6970667358 0x22 SLT KECCAK256 LOG0 SELFDESTRUCT 0xB0 DUP16 EQ SSTORE 0xAA SWAP12 RETURNDATACOPY DUP3 PUSH5 0xAF8CD5DC9C 0xE PUSH21 0xF33C84FB8FFF3390C1287178564564736F6C634300 ADDMOD 0x1E STOP CALLER "
				},
				"gasEstimates": {
					"creation": {
						"codeDepositCost": "107600",
						"executionCost": "151",
						"totalCost": "107751"
					},
					"external": {
						"yul_for_loop()": "infinite",
						"yul_let()": "380",
						"yul_switch(uint256)": "infinite",
						"yul_while_loop()": "infinite"
					}
				},
				"methodIdentifiers": {
					"yul_for_loop()": "d22b5850",
					"yul_let()": "fa0de168",
					"yul_switch(uint256)": "a917238b",
					"yul_while_loop()": "fd4a8ebb"
				}
			},
			"storageLayout": {
				"storage": [],
				"types": null
			},
			"userdoc": {
				"kind": "user",
				"methods": {},
				"version": 1
			}
		}
	}
}